{
  "_format": "hh-sol-artifact-1",
  "contractName": "DiplomaRegistry",
  "sourceName": "contracts/DiplomaRegistry.sol",
  "abi": [
    {
      "inputs": [],
      "stateMutability": "nonpayable",
      "type": "constructor"
    },
    {
      "anonymous": false,
      "inputs": [
        {
          "indexed": true,
          "internalType": "bytes32",
          "name": "certId",
          "type": "bytes32"
        },
        {
          "indexed": false,
          "internalType": "string",
          "name": "studentId",
          "type": "string"
        },
        {
          "indexed": true,
          "internalType": "address",
          "name": "school",
          "type": "address"
        },
        {
          "indexed": false,
          "internalType": "string",
          "name": "degreeName",
          "type": "string"
        }
      ],
      "name": "DiplomaIssued",
      "type": "event"
    },
    {
      "anonymous": false,
      "inputs": [
        {
          "indexed": true,
          "internalType": "bytes32",
          "name": "certId",
          "type": "bytes32"
        },
        {
          "indexed": false,
          "internalType": "address",
          "name": "revokedBy",
          "type": "address"
        }
      ],
      "name": "DiplomaRevoked",
      "type": "event"
    },
    {
      "anonymous": false,
      "inputs": [
        {
          "indexed": true,
          "internalType": "bytes32",
          "name": "certId",
          "type": "bytes32"
        },
        {
          "indexed": false,
          "internalType": "address",
          "name": "unrevokedBy",
          "type": "address"
        }
      ],
      "name": "DiplomaUnrevoked",
      "type": "event"
    },
    {
      "anonymous": false,
      "inputs": [
        {
          "indexed": true,
          "internalType": "address",
          "name": "school",
          "type": "address"
        },
        {
          "indexed": false,
          "internalType": "string",
          "name": "name",
          "type": "string"
        }
      ],
      "name": "SchoolAuthorized",
      "type": "event"
    },
    {
      "anonymous": false,
      "inputs": [
        {
          "indexed": true,
          "internalType": "address",
          "name": "school",
          "type": "address"
        }
      ],
      "name": "SchoolRevoked",
      "type": "event"
    },
    {
      "inputs": [
        {
          "internalType": "address",
          "name": "school",
          "type": "address"
        },
        {
          "internalType": "string",
          "name": "name",
          "type": "string"
        }
      ],
      "name": "authorizeSchool",
      "outputs": [],
      "stateMutability": "nonpayable",
      "type": "function"
    },
    {
      "inputs": [
        {
          "internalType": "address",
          "name": "",
          "type": "address"
        }
      ],
      "name": "authorizedSchools",
      "outputs": [
        {
          "internalType": "bool",
          "name": "",
          "type": "bool"
        }
      ],
      "stateMutability": "view",
      "type": "function"
    },
    {
      "inputs": [
        {
          "internalType": "bytes32",
          "name": "certId",
          "type": "bytes32"
        }
      ],
      "name": "getDiploma",
      "outputs": [
        {
          "components": [
            {
              "internalType": "bytes32",
              "name": "certId",
              "type": "bytes32"
            },
            {
              "internalType": "string",
              "name": "studentId",
              "type": "string"
            },
            {
              "internalType": "string",
              "name": "studentName",
              "type": "string"
            },
            {
              "internalType": "string",
              "name": "schoolName",
              "type": "string"
            },
            {
              "internalType": "string",
              "name": "degreeName",
              "type": "string"
            },
            {
              "internalType": "string",
              "name": "fieldOfStudy",
              "type": "string"
            },
            {
              "internalType": "string",
              "name": "ipfsHash",
              "type": "string"
            },
            {
              "internalType": "uint256",
              "name": "issueDate",
              "type": "uint256"
            },
            {
              "internalType": "address",
              "name": "issuedBy",
              "type": "address"
            },
            {
              "internalType": "bool",
              "name": "isRevoked",
              "type": "bool"
            }
          ],
          "internalType": "struct DiplomaRegistry.Diploma",
          "name": "",
          "type": "tuple"
        }
      ],
      "stateMutability": "view",
      "type": "function"
    },
    {
      "inputs": [
        {
          "internalType": "string",
          "name": "studentId",
          "type": "string"
        }
      ],
      "name": "getDiplomaCount",
      "outputs": [
        {
          "internalType": "uint256",
          "name": "",
          "type": "uint256"
        }
      ],
      "stateMutability": "view",
      "type": "function"
    },
    {
      "inputs": [
        {
          "internalType": "string",
          "name": "studentId",
          "type": "string"
        }
      ],
      "name": "getStudentDiplomas",
      "outputs": [
        {
          "internalType": "bytes32[]",
          "name": "",
          "type": "bytes32[]"
        }
      ],
      "stateMutability": "view",
      "type": "function"
    },
    {
      "inputs": [
        {
          "internalType": "string",
          "name": "studentId",
          "type": "string"
        },
        {
          "internalType": "string",
          "name": "studentName",
          "type": "string"
        },
        {
          "internalType": "string",
          "name": "degreeName",
          "type": "string"
        },
        {
          "internalType": "string",
          "name": "fieldOfStudy",
          "type": "string"
        },
        {
          "internalType": "string",
          "name": "ipfsHash",
          "type": "string"
        }
      ],
      "name": "issueDiploma",
      "outputs": [
        {
          "internalType": "bytes32",
          "name": "certId",
          "type": "bytes32"
        }
      ],
      "stateMutability": "nonpayable",
      "type": "function"
    },
    {
      "inputs": [],
      "name": "owner",
      "outputs": [
        {
          "internalType": "address",
          "name": "",
          "type": "address"
        }
      ],
      "stateMutability": "view",
      "type": "function"
    },
    {
      "inputs": [
        {
          "internalType": "bytes32",
          "name": "certId",
          "type": "bytes32"
        }
      ],
      "name": "revokeDiploma",
      "outputs": [],
      "stateMutability": "nonpayable",
      "type": "function"
    },
    {
      "inputs": [
        {
          "internalType": "address",
          "name": "school",
          "type": "address"
        }
      ],
      "name": "revokeSchoolAuthorization",
      "outputs": [],
      "stateMutability": "nonpayable",
      "type": "function"
    },
    {
      "inputs": [
        {
          "internalType": "address",
          "name": "",
          "type": "address"
        }
      ],
      "name": "schoolNames",
      "outputs": [
        {
          "internalType": "string",
          "name": "",
          "type": "string"
        }
      ],
      "stateMutability": "view",
      "type": "function"
    },
    {
      "inputs": [
        {
          "internalType": "address",
          "name": "newOwner",
          "type": "address"
        }
      ],
      "name": "transferOwnership",
      "outputs": [],
      "stateMutability": "nonpayable",
      "type": "function"
    },
    {
      "inputs": [
        {
          "internalType": "bytes32",
          "name": "certId",
          "type": "bytes32"
        }
      ],
      "name": "unrevokeDiploma",
      "outputs": [],
      "stateMutability": "nonpayable",
      "type": "function"
    },
    {
      "inputs": [
        {
          "internalType": "bytes32",
          "name": "certId",
          "type": "bytes32"
        }
      ],
      "name": "verifyDiploma",
      "outputs": [
        {
          "internalType": "bool",
          "name": "",
          "type": "bool"
        }
      ],
      "stateMutability": "view",
      "type": "function"
    }
  ],
  "bytecode": "0x6080806040523461002857600080546001600160a01b031916331790556119f1908161002e8239f35b600080fdfe6080604052600436101561001257600080fd5b60003560e01c80620b09321461147457806307798a91146114355780632b04cb77146112055780633b54f7e6146111c757806349c8eba21461080557806354aaf146146106d45780635a3cd9b4146104c75780638da5cb5b1461049e578063b12a5e67146103df578063c487da791461018a578063c57c011514610127578063e89cc997146100ff5763f2fde38b146100aa57600080fd5b346100fa5760203660031901126100fa576100c3611541565b600054906001600160a01b03906100dd33838516146116d1565b16906100ea821515611716565b6001600160a01b03191617600055005b600080fd5b346100fa5760203660031901126100fa57602061011d600435611990565b6040519015158152f35b346100fa5760203660031901126100fa576001600160a01b03610148611541565b16600052600460205261018661016b6101726040600020604051928380926115fe565b03826116b0565b604051918291602083526020830190611557565b0390f35b346100fa576020806003193601126100fa57600435806000526001918281526101bc600760406000200154151561194b565b8160005282815260406000209260088401805460ff8160a01c1661039a57600054336001600160a01b039182161490811561038e575b50156103495760ff60a01b1916600160a01b17905560405184820180546000929185919061021f826115c4565b9186811690811561033157506001146102f6575b505081836005600495520301902094019060405191600091815491610257836115c4565b928281169081156102dd57506001146102ab575b50505081817fdd567030ad206e93bf840ff755cd298cdc932eaebf384a4983ed73d00769584c95968593520301902060ff198154169055604051338152a2005b6000908152858120929350915b8383106102cc57505050810181858461026b565b8054858401529185019181016102b8565b60ff19168652505050801515028201905081858461026b565b909192935060005281600020846000915b83831061031d5750505082019190816004610233565b805483870152879490920191869101610307565b60ff1916855250508015150282019250816004610233565b60405162461bcd60e51b815260048101859052601860248201527f4e6f7420617574686f72697a656420746f207265766f6b6500000000000000006044820152606490fd5b905081163314876101f2565b60405162461bcd60e51b815260048101859052601760248201527f4469706c6f6d6120616c7265616479207265766f6b65640000000000000000006044820152606490fd5b346100fa576020806003193601126100fa576004356001600160401b0381116100fa57610413610419913690600401611597565b906117c9565b60405190818382549182815201908192600052846000209060005b8682821061048a57868661044a828803836116b0565b604051928392818401908285525180915260408401929160005b82811061047357505050500390f35b835185528695509381019392810192600101610464565b835485529093019260019283019201610434565b346100fa5760003660031901126100fa576000546040516001600160a01b039091168152602090f35b346100fa5760403660031901126100fa576104e0611541565b6001600160401b036024358181116100fa57610500903690600401611597565b91909260018060a01b039061051a826000541633146116d1565b1692610527841515611716565b836000526020916003835260ff6040600020541661068f57846000526003835260406000206001908160ff198254161790556004845260406000209185116106795761057d8561057784546115c4565b84611754565b6000601f86116001146105f0579185807fa8047077c2a450926551411009705e53244402b75fbd76b5e07a3b2cb73300ac979695936105e0956000936105e5575b501b906000198760031b1c19161790555b6040519383859485528401916117a8565b0390a2005b85013592508a6105be565b601f1986169083600052856000209160005b81811061066457509187969593917fa8047077c2a450926551411009705e53244402b75fbd76b5e07a3b2cb73300ac986105e096941061064a575b505085811b0190556105cf565b840135600019600389901b60f8161c19169055888061063d565b86830135845592840192918701918701610602565b634e487b7160e01b600052604160045260246000fd5b60405162461bcd60e51b815260048101849052601960248201527f5363686f6f6c20616c726561647920617574686f72697a6564000000000000006044820152606490fd5b346100fa576020806003193601126100fa57600435908160005260018152610705600760406000200154151561194b565b81600052600181526008604060002001805460ff8160a01c16156107c757600054336001600160a01b03918216149081156107bb575b50156107765760ff60a01b191690556040513381527fc30573616dafff868c9e4e2fc3f12a09c5154d0eaf4077810e811e2e8a1909629190a2005b60405162461bcd60e51b815260048101849052601a60248201527f4e6f7420617574686f72697a656420746f20756e7265766f6b650000000000006044820152606490fd5b9050811633148561073b565b60405162461bcd60e51b8152600481018490526016602482015275111a5c1b1bdb58481a5cc81b9bdd081c995d9bdad95960521b6044820152606490fd5b346100fa5760a03660031901126100fa576004356001600160401b0381116100fa57610835903690600401611597565b906024356001600160401b0381116100fa57610855903690600401611597565b90916044356001600160401b0381116100fa57610876903690600401611597565b9190926064356001600160401b0381116100fa57610898903690600401611597565b906084356001600160401b0381116100fa576108b8903690600401611597565b91909233600052600360205260ff604060002054161561118257891561114757841561110a5786156110ce5760ff6109068b60206040518281938c833781016005815203019020898b6117e2565b54161580156110bc575b1561105e576006549860405160208101908c898337808d81013360601b60208201524260348201528d60548201520360548101825260740161095290826116b0565b5190209961095f906117fb565b6006553360005260046020526040600020906040519661097e88611694565b8b885261098c368e8b611820565b6020890152369061099c92611820565b60408701526040516109af8180936115fe565b036109ba90826116b0565b60608601526109ca36888a611820565b608086015236906109da92611820565b60a084015236906109ea92611820565b60c08201524260e08201523361010082015261012081016000905284600052600160205260406000208151815560208201518051906001600160401b038211610679578190610a4982610a4060018701546115c4565b60018701611754565b602090601f8311600114610fec57600092610fe1575b50508160011b916000199060031b1c19161760018201555b60408201518051906001600160401b038211610679578190610aa982610aa060028701546115c4565b60028701611754565b602090601f8311600114610f6f57600092610f64575b50508160011b916000199060031b1c19161760028201555b60608201518051906001600160401b038211610679578190610b0982610b0060038701546115c4565b60038701611754565b602090601f8311600114610ef257600092610ee7575b50508160011b916000199060031b1c19161760038201555b60808201518051906001600160401b038211610679578190610b6982610b6060048701546115c4565b60048701611754565b602090601f8311600114610e7557600092610e6a575b50508160011b916000199060031b1c19161760048201555b60a08201518051906001600160401b038211610679578190610bc982610bc060058701546115c4565b60058701611754565b602090601f8311600114610df857600092610ded575b50508160011b916000199060031b1c19161760058201555b60c08201518051906001600160401b03821161067957610c2782610c1e60068601546115c4565b60068601611754565b602090601f8311600114610d7a57600893929160009183610d6f575b50508160011b916000199060031b1c19161760068201555b60e08301516007820155019060018060a01b036101008201511682549161012060ff60a01b910151151560a01b16916affffffffffffffffffffff60a81b1617179055604051858282376020818781016002815203019020908154956801000000000000000087101561067957610d648694610d00897ff2797f1a5faf9a477147e309e9cdd11edbbf107dbb643a98a2c56a7b1e7c161396600160209c018155611866565b81549060031b9088821b91600019901b1916179055610d33604051848682378a81868101600581520301902082896117e2565b600160ff19825416179055610d556040519485946040865260408601916117a8565b908382038a85015233976117a8565b0390a3604051908152f35b015190508a80610c43565b906006840160005260206000209160005b601f1985168110610dd5575091839160019360089695601f19811610610dbc575b505050811b016006820155610c5b565b015160001960f88460031b161c191690558a8080610dac565b91926020600181928685015181550194019201610d8b565b015190508980610bdf565b9250600584016000526020600020906000935b601f1984168510610e4f576001945083601f19811610610e36575b505050811b016005820155610bf7565b015160001960f88460031b161c19169055898080610e26565b81810151835560209485019460019093019290910190610e0b565b015190508980610b7f565b9250600484016000526020600020906000935b601f1984168510610ecc576001945083601f19811610610eb3575b505050811b016004820155610b97565b015160001960f88460031b161c19169055898080610ea3565b81810151835560209485019460019093019290910190610e88565b015190508980610b1f565b9250600384016000526020600020906000935b601f1984168510610f49576001945083601f19811610610f30575b505050811b016003820155610b37565b015160001960f88460031b161c19169055898080610f20565b81810151835560209485019460019093019290910190610f05565b015190508980610abf565b9250600284016000526020600020906000935b601f1984168510610fc6576001945083601f19811610610fad575b505050811b016002820155610ad7565b015160001960f88460031b161c19169055898080610f9d565b81810151835560209485019460019093019290910190610f82565b015190508980610a5f565b9250600184016000526020600020906000935b601f1984168510611043576001945083601f1981161061102a575b505050811b016001820155610a77565b015160001960f88460031b161c1916905589808061101a565b81810151835560209485019460019093019290910190610fff565b60405162461bcd60e51b815260206004820152603060248201527f416e20616374697665206469706c6f6d6120616c72656164792065786973747360448201526f20666f7220746869732064656772656560801b6064820152608490fd5b506110c987898c89611894565b610910565b60405162461bcd60e51b8152602060048201526014602482015273111959dc9959481b985b59481c995c5d5a5c995960621b6044820152606490fd5b60405162461bcd60e51b815260206004820152601560248201527414dd1d59195b9d081b985b59481c995c5d5a5c9959605a1b6044820152606490fd5b60405162461bcd60e51b815260206004820152601360248201527214dd1d59195b9d081251081c995c5d5a5c9959606a1b6044820152606490fd5b60405162461bcd60e51b815260206004820152601860248201527f4e6f7420616e20617574686f72697a6564207363686f6f6c00000000000000006044820152606490fd5b346100fa5760203660031901126100fa576004356001600160401b0381116100fa576111fc6104136020923690600401611597565b54604051908152f35b346100fa5760203660031901126100fa57600435600061012060405161122a81611694565b828152606060208201526060604082015260608082015260606080820152606060a0820152606060c08201528260e0820152826101008201520152806000526001602052611281600760406000200154151561194b565b6000526001602052604060002060ff60086040519261129f84611694565b805484526040516112b78161016b81600186016115fe565b60208501526040516112d08161016b81600286016115fe565b60408501526040516112e98161016b81600386016115fe565b60608501526040516113028161016b81600486016115fe565b608085015260405161131b8161016b81600586016115fe565b60a08501526040516113348161016b81600686016115fe565b60c0850152600781015460e0850152015460018060a01b03811661010084015260a01c16151561012082015260405180916020825280516020830152602081015161012061140961139361014093846040880152610160870190611557565b6113f46113e06113cc6113b8604089015194601f1995868c83030160608d0152611557565b6060890151858b83030160808c0152611557565b6080880151848a83030160a08b0152611557565b60a0870151838983030160c08a0152611557565b9060c0860151908783030160e0880152611557565b60e0840151610100868101919091528401516001600160a01b0316828601529201511515908301520390f35b346100fa5760203660031901126100fa576001600160a01b03611456611541565b166000526003602052602060ff604060002054166040519015158152f35b346100fa5760203660031901126100fa5761148d611541565b6000546001600160a01b0391906114a790831633146116d1565b1680600052600360205260ff60406000205416156114fc57806000526003602052604060002060ff1981541690557fc693642ba16feaff6d4367ba911e06143fe4707457c48bd60de0fc470a5384aa600080a2005b60405162461bcd60e51b815260206004820152601860248201527f5363686f6f6c206973206e6f7420617574686f72697a656400000000000000006044820152606490fd5b600435906001600160a01b03821682036100fa57565b919082519283825260005b848110611583575050826000602080949584010152601f8019910116010190565b602081830181015184830182015201611562565b9181601f840112156100fa578235916001600160401b0383116100fa57602083818601950101116100fa57565b90600182811c921680156115f4575b60208310146115de57565b634e487b7160e01b600052602260045260246000fd5b91607f16916115d3565b906000929180549161160f836115c4565b9182825260019384811690816000146116715750600114611631575b50505050565b90919394506000526020928360002092846000945b83861061165d57505050500101903880808061162b565b805485870183015294019385908201611646565b9294505050602093945060ff191683830152151560051b0101903880808061162b565b61014081019081106001600160401b0382111761067957604052565b90601f801991011681019081106001600160401b0382111761067957604052565b156116d857565b60405162461bcd60e51b81526020600482015260166024820152752737ba103a34329031b7b73a3930b1ba1037bbb732b960511b6044820152606490fd5b1561171d57565b60405162461bcd60e51b815260206004820152600f60248201526e496e76616c6964206164647265737360881b6044820152606490fd5b90601f811161176257505050565b600091825260208220906020601f850160051c8301941061179e575b601f0160051c01915b82811061179357505050565b818155600101611787565b909250829061177e565b908060209392818452848401376000828201840152601f01601f1916010190565b6020908260405193849283378101600281520301902090565b6020919283604051948593843782019081520301902090565b600019811461180a5760010190565b634e487b7160e01b600052601160045260246000fd5b9291926001600160401b0382116106795760405191611849601f8201601f1916602001846116b0565b8294818452818301116100fa578281602093846000960137010152565b805482101561187e5760005260206000200190600090565b634e487b7160e01b600052603260045260246000fd5b91929060409281845192839283378101600281526020928391030190206000948154955b8681106118cb5750505050505050600190565b6118d58184611866565b90549060031b1c600052600184528560002086516118fa8161016b81600486016115fe565b85815191012061190b368886611820565b868151910120149081611938575b5061192c57611927906117fb565b6118b8565b50505050505050600090565b60ff91506008015460a01c161538611919565b1561195257565b60405162461bcd60e51b8152602060048201526016602482015275111a5c1b1bdb5848191bd95cc81b9bdd08195e1a5cdd60521b6044820152606490fd5b600052600160205260406000206007810154156119b5576008015460a01c60ff161590565b5060009056fea2646970667358221220e910b928e3ed73bb8b6bf096f0afd308831da8cd0d7090db549079d08469bf4f64736f6c63430008140033",
  "linkReferences": {},
  "deployedLinkReferences": {}
}