{
  "_format": "hh-sol-artifact-1",
  "contractName": "DocumentRegistry",
  "sourceName": "contracts/DocumentRegistry.sol",
  "abi": [
    {
      "inputs": [],
      "stateMutability": "nonpayable",
      "type": "constructor"
    },
    {
      "anonymous": false,
      "inputs": [
        {
          "indexed": true,
          "internalType": "bytes32",
          "name": "docId",
          "type": "bytes32"
        },
        {
          "indexed": false,
          "internalType": "string",
          "name": "studentId",
          "type": "string"
        },
        {
          "indexed": false,
          "internalType": "string",
          "name": "documentType",
          "type": "string"
        }
      ],
      "name": "DocumentIssued",
      "type": "event"
    },
    {
      "anonymous": false,
      "inputs": [
        {
          "indexed": true,
          "internalType": "bytes32",
          "name": "docId",
          "type": "bytes32"
        },
        {
          "indexed": false,
          "internalType": "address",
          "name": "revokedBy",
          "type": "address"
        }
      ],
      "name": "DocumentRevoked",
      "type": "event"
    },
    {
      "anonymous": false,
      "inputs": [
        {
          "indexed": true,
          "internalType": "bytes32",
          "name": "docId",
          "type": "bytes32"
        },
        {
          "indexed": false,
          "internalType": "address",
          "name": "unrevokedBy",
          "type": "address"
        }
      ],
      "name": "DocumentUnrevoked",
      "type": "event"
    },
    {
      "anonymous": false,
      "inputs": [
        {
          "indexed": true,
          "internalType": "address",
          "name": "school",
          "type": "address"
        },
        {
          "indexed": false,
          "internalType": "string",
          "name": "name",
          "type": "string"
        }
      ],
      "name": "SchoolAuthorized",
      "type": "event"
    },
    {
      "inputs": [
        {
          "internalType": "address",
          "name": "school",
          "type": "address"
        },
        {
          "internalType": "string",
          "name": "name",
          "type": "string"
        }
      ],
      "name": "authorizeSchool",
      "outputs": [],
      "stateMutability": "nonpayable",
      "type": "function"
    },
    {
      "inputs": [
        {
          "internalType": "address",
          "name": "",
          "type": "address"
        }
      ],
      "name": "authorizedSchools",
      "outputs": [
        {
          "internalType": "bool",
          "name": "",
          "type": "bool"
        }
      ],
      "stateMutability": "view",
      "type": "function"
    },
    {
      "inputs": [
        {
          "internalType": "bytes32",
          "name": "docId",
          "type": "bytes32"
        }
      ],
      "name": "getDocument",
      "outputs": [
        {
          "components": [
            {
              "internalType": "bytes32",
              "name": "docId",
              "type": "bytes32"
            },
            {
              "internalType": "string",
              "name": "studentId",
              "type": "string"
            },
            {
              "internalType": "string",
              "name": "studentName",
              "type": "string"
            },
            {
              "internalType": "string",
              "name": "documentType",
              "type": "string"
            },
            {
              "internalType": "string",
              "name": "ipfsHash",
              "type": "string"
            },
            {
              "internalType": "uint256",
              "name": "issueDate",
              "type": "uint256"
            },
            {
              "internalType": "address",
              "name": "issuedBy",
              "type": "address"
            },
            {
              "internalType": "bool",
              "name": "isRevoked",
              "type": "bool"
            }
          ],
          "internalType": "struct DocumentRegistry.Document",
          "name": "",
          "type": "tuple"
        }
      ],
      "stateMutability": "view",
      "type": "function"
    },
    {
      "inputs": [
        {
          "internalType": "string",
          "name": "studentId",
          "type": "string"
        }
      ],
      "name": "getStudentDocuments",
      "outputs": [
        {
          "internalType": "bytes32[]",
          "name": "",
          "type": "bytes32[]"
        }
      ],
      "stateMutability": "view",
      "type": "function"
    },
    {
      "inputs": [
        {
          "internalType": "string",
          "name": "studentId",
          "type": "string"
        },
        {
          "internalType": "string",
          "name": "studentName",
          "type": "string"
        },
        {
          "internalType": "string",
          "name": "documentType",
          "type": "string"
        },
        {
          "internalType": "string",
          "name": "ipfsHash",
          "type": "string"
        }
      ],
      "name": "issueDocument",
      "outputs": [
        {
          "internalType": "bytes32",
          "name": "docId",
          "type": "bytes32"
        }
      ],
      "stateMutability": "nonpayable",
      "type": "function"
    },
    {
      "inputs": [],
      "name": "owner",
      "outputs": [
        {
          "internalType": "address",
          "name": "",
          "type": "address"
        }
      ],
      "stateMutability": "view",
      "type": "function"
    },
    {
      "inputs": [
        {
          "internalType": "bytes32",
          "name": "docId",
          "type": "bytes32"
        }
      ],
      "name": "revokeDocument",
      "outputs": [],
      "stateMutability": "nonpayable",
      "type": "function"
    },
    {
      "inputs": [
        {
          "internalType": "address",
          "name": "",
          "type": "address"
        }
      ],
      "name": "schoolNames",
      "outputs": [
        {
          "internalType": "string",
          "name": "",
          "type": "string"
        }
      ],
      "stateMutability": "view",
      "type": "function"
    },
    {
      "inputs": [
        {
          "internalType": "bytes32",
          "name": "docId",
          "type": "bytes32"
        }
      ],
      "name": "unrevokeDocument",
      "outputs": [],
      "stateMutability": "nonpayable",
      "type": "function"
    },
    {
      "inputs": [
        {
          "internalType": "bytes32",
          "name": "docId",
          "type": "bytes32"
        }
      ],
      "name": "verifyDocument",
      "outputs": [
        {
          "internalType": "bool",
          "name": "",
          "type": "bool"
        }
      ],
      "stateMutability": "view",
      "type": "function"
    }
  ],
  "bytecode": "0x6080806040523461002857600080546001600160a01b03191633179055611617908161002e8239f35b600080fdfe6080604052600436101561001257600080fd5b60003560e01c80630465ea2114610f8d57806307798a9114610f4e5780634ba3022f14610e825780635a3cd9b414610c1b5780638da5cb5b14610bf2578063952be80d14610ad15780639b6e59f4146102d2578063b10d6b411461011a578063c57c0115146100b75763fe35089f1461008a57600080fd5b346100b25760203660031901126100b25760206100a86004356114fd565b6040519015158152f35b600080fd5b346100b25760203660031901126100b2576001600160a01b036100d8611098565b1660005260046020526101166100fb610102604060002060405192838092611155565b0382611207565b6040519182916020835260208301906110db565b0390f35b346100b2576020806003193601126100b2576040519060043561013c836111eb565b60008352600060e0606094858582015285604082015285808201528560808201528260a08201528260c082015201528060005260018252610186600560406000200154151561134f565b6000526001815260406000206040519161019f836111eb565b81548352604051936101bf856101b88160018701611155565b0386611207565b818401948552836040516101da816100fb8160028901611155565b604082019081526102b9604051936101f9856101b88160038b01611155565b8084019485526040519061021b826102148160048c01611155565b0383611207565b608085019182526102a8600660058a01549960a088019a8b5201549661029760c088019660ff60e060018060a01b039a8b8d168b52019a60a01c1615158a526102836040519e8f9e8f9d8e9181835251910152516101206101009d8e604082015201906110db565b90518d601f199687828503019101526110db565b9051838c83030160808d01526110db565b9151908983030160a08a01526110db565b945160c0870152511660e0850152511515908301520390f35b346100b25760803660031901126100b2576004356001600160401b0381116100b2576103029036906004016110ae565b906024356001600160401b0381116100b2576103229036906004016110ae565b9190926044356001600160401b0381116100b2576103449036906004016110ae565b9290946064356001600160401b0381116100b2576103669036906004016110ae565b959033600052600360205260ff6040600020541615610a8c578415610a51578115610a145785156109d657861561099c5760ff6103b8604051878782376020818981016005815203019020888b61129d565b541615801561098a575b1561092e576006549660405160208101908787833780898c818b840191602083016000815237014260208201528b6040820152036040810182526060016104099082611207565b51902097610416906112b6565b60065560405193610426856111eb565b8885526104343688886112db565b93602086019485523690610447926112db565b604085015261045736888b6112db565b60608501523690610467926112db565b60808301524260a08301523360c083015260e082016000905285600052600160205260406000209082518255518051906001600160401b0382116107235781906104c1826104b8600187015461111b565b60018701611228565b602090601f83116001146108bc576000926108b1575b50508160011b916000199060031b1c19161760018201555b60408201518051906001600160401b03821161072357819061052182610518600287015461111b565b60028701611228565b602090601f831160011461083f57600092610834575b50508160011b916000199060031b1c19161760028201555b60608201518051906001600160401b03821161072357819061058182610578600387015461111b565b60038701611228565b602090601f83116001146107c2576000926107b7575b50508160011b916000199060031b1c19161760038201555b60808201518051906001600160401b038211610723576105df826105d6600486015461111b565b60048601611228565b602090601f831160011461074457600693929160009183610739575b50508160011b916000199060031b1c19161760048201555b60a08301516005820155019060018060a01b0360c08201511682549160e060ff60a01b910151151560a01b16916affffffffffffffffffffff60a81b1617179055604051828282376020818481016002815203019020918254680100000000000000008110156107235760209686956106b6837fb6fadea892807ffc801a7e8aba2cf61cf7a38c71cc1184c3d970786d6abcfab797600161071896018155611321565b81549060031b9089821b91600019901b19161790556106e9604051858782378a818781016005815203019020828461129d565b600160ff1982541617905561070b60405195869560408752604087019161127c565b918483038a86015261127c565b0390a2604051908152f35b634e487b7160e01b600052604160045260246000fd5b015190508a806105fb565b906004840160005260206000209160005b601f198516811061079f575091839160019360069695601f19811610610786575b505050811b016004820155610613565b015160001960f88460031b161c191690558a8080610776565b91926020600181928685015181550194019201610755565b015190508980610597565b9250600384016000526020600020906000935b601f1984168510610819576001945083601f19811610610800575b505050811b0160038201556105af565b015160001960f88460031b161c191690558980806107f0565b818101518355602094850194600190930192909101906107d5565b015190508980610537565b9250600284016000526020600020906000935b601f1984168510610896576001945083601f1981161061087d575b505050811b01600282015561054f565b015160001960f88460031b161c1916905589808061086d565b81810151835560209485019460019093019290910190610852565b0151905089806104d7565b9250600184016000526020600020906000935b601f1984168510610913576001945083601f198116106108fa575b505050811b0160018201556104ef565b015160001960f88460031b161c191690558980806108ea565b818101518355602094850194600190930192909101906108cf565b60405162461bcd60e51b815260206004820152602e60248201527f416e2061637469766520646f63756d656e74206f66207468697320747970652060448201526d616c72656164792065786973747360901b6064820152608490fd5b5061099786898787611528565b6103c2565b60405162461bcd60e51b815260206004820152601260248201527112541194c81a185cda081c995c5d5a5c995960721b6044820152606490fd5b60405162461bcd60e51b8152602060048201526016602482015275111bd8dd5b595b9d081d1e5c19481c995c5d5a5c995960521b6044820152606490fd5b60405162461bcd60e51b815260206004820152601560248201527414dd1d59195b9d081b985b59481c995c5d5a5c9959605a1b6044820152606490fd5b60405162461bcd60e51b815260206004820152601360248201527214dd1d59195b9d081251081c995c5d5a5c9959606a1b6044820152606490fd5b60405162461bcd60e51b815260206004820152601860248201527f4e6f7420616e20617574686f72697a6564207363686f6f6c00000000000000006044820152606490fd5b346100b25760203660031901126100b257600435806000526001602052610b01600560406000200154151561134f565b8060005260016020526040600020600681019081549160ff8360a01c16610bad57600054610b6d9390610b4990336001600160a01b0391821614908115610ba1575b5061139b565b60ff60a01b1916600160a01b1790556003610b66600183016113d8565b910161146b565b60ff1981541690557f0a7643bfbd115d98595cc7bd15944172c7ef0e4a7f48dcaf676dec4b74be93676020604051338152a2005b90508216331487610b43565b60405162461bcd60e51b815260206004820152601860248201527f446f63756d656e7420616c7265616479207265766f6b656400000000000000006044820152606490fd5b346100b25760003660031901126100b2576000546040516001600160a01b039091168152602090f35b346100b25760403660031901126100b257610c34611098565b6001600160401b036024358181116100b257610c549036906004016110ae565b60005491939092916001600160a01b03919082163303610e445716928315610e0d57836000526020916003835260ff60406000205416610dc857846000526003835260406000206001908160ff1982541617905560048452604060002091851161072357610ccc85610cc6845461111b565b84611228565b6000601f8611600114610d3f579185807fa8047077c2a450926551411009705e53244402b75fbd76b5e07a3b2cb73300ac97969593610d2f95600093610d34575b501b906000198760031b1c19161790555b60405193838594855284019161127c565b0390a2005b85013592508a610d0d565b601f1986169083600052856000209160005b818110610db357509187969593917fa8047077c2a450926551411009705e53244402b75fbd76b5e07a3b2cb73300ac98610d2f969410610d99575b505085811b019055610d1e565b840135600019600389901b60f8161c191690558880610d8c565b86830135845592840192918701918701610d51565b60405162461bcd60e51b815260048101849052601960248201527f5363686f6f6c20616c726561647920617574686f72697a6564000000000000006044820152606490fd5b60405162461bcd60e51b815260206004820152600f60248201526e496e76616c6964206164647265737360881b6044820152606490fd5b60405162461bcd60e51b81526020600482015260166024820152752737ba103a34329031b7b73a3930b1ba1037bbb732b960511b6044820152606490fd5b346100b2576020806003193601126100b2576004356001600160401b0381116100b257610eb4829136906004016110ae565b91908260405193849283378101600281520301902060405190818382549182815201908192600052846000209060005b86828210610f3a578686610efa82880383611207565b604051928392818401908285525180915260408401929160005b828110610f2357505050500390f35b835185528695509381019392810192600101610f14565b835485529093019260019283019201610ee4565b346100b25760203660031901126100b2576001600160a01b03610f6f611098565b166000526003602052602060ff604060002054166040519015158152f35b346100b25760203660031901126100b257600435806000526001602052610fbd600560406000200154151561134f565b8060005260016020526040600020600681019081549160ff8360a01c16156110535760005461101c939061100590336001600160a01b0391821614908115610ba1575061139b565b60ff60a01b191690556003610b66600183016113d8565b600160ff198254161790557f341306682bf1ac65080aa2d70f7a5bb9f28db75b9eaf3d207b01709496d479346020604051338152a2005b60405162461bcd60e51b815260206004820152601760248201527f446f63756d656e74206973206e6f74207265766f6b65640000000000000000006044820152606490fd5b600435906001600160a01b03821682036100b257565b9181601f840112156100b2578235916001600160401b0383116100b257602083818601950101116100b257565b919082519283825260005b848110611107575050826000602080949584010152601f8019910116010190565b6020818301810151848301820152016110e6565b90600182811c9216801561114b575b602083101461113557565b634e487b7160e01b600052602260045260246000fd5b91607f169161112a565b90600092918054916111668361111b565b9182825260019384811690816000146111c85750600114611188575b50505050565b90919394506000526020928360002092846000945b8386106111b4575050505001019038808080611182565b80548587018301529401938590820161119d565b9294505050602093945060ff191683830152151560051b01019038808080611182565b61010081019081106001600160401b0382111761072357604052565b90601f801991011681019081106001600160401b0382111761072357604052565b90601f811161123657505050565b600091825260208220906020601f850160051c83019410611272575b601f0160051c01915b82811061126757505050565b81815560010161125b565b9092508290611252565b908060209392818452848401376000828201840152601f01601f1916010190565b6020919283604051948593843782019081520301902090565b60001981146112c55760010190565b634e487b7160e01b600052601160045260246000fd5b9291926001600160401b0382116107235760405191611304601f8201601f191660200184611207565b8294818452818301116100b2578281602093846000960137010152565b80548210156113395760005260206000200190600090565b634e487b7160e01b600052603260045260246000fd5b1561135657565b60405162461bcd60e51b815260206004820152601760248201527f446f63756d656e7420646f6573206e6f742065786973740000000000000000006044820152606490fd5b156113a257565b60405162461bcd60e51b815260206004820152600e60248201526d139bdd08185d5d1a1bdc9a5e995960921b6044820152606490fd5b6040519081600082546113ea8161111b565b9360019180831690811561144f5750600114611412575b505060209250600581520301902090565b90915060005260209081600020906000915b85831061143b575050505060209181013880611401565b805487840152869450918301918101611424565b92505050602093915060ff191682528015150281013880611401565b906040518092600090805461147f8161111b565b916001918083169081156114e357506001146114a5575b50505060209281520301902090565b60009081526020808220969450915b8382106114cd5750505060209350820190923880611496565b86548883015295860195879550908201906114b4565b60ff19168652505050801515028201905060203880611496565b60005260016020526040600020600581015415611522576006015460a01c60ff161590565b50600090565b91929060409281845192839283378101600281526020928391030190206000948154955b86811061155f5750505050505050600190565b6115698184611321565b9054600391821b1c600052600185526100fb61159088600020928951928380928601611155565b8581519101206115a13688866112db565b8681519101201490816115ce575b506115c2576115bd906112b6565b61154c565b50505050505050600090565b60ff91506006015460a01c1615386115af56fea26469706673582212207bd299d0d924b881396312aa7fe4717c9e8ad4791a75f950bb6c3b06887f8ff264736f6c63430008140033",
  "linkReferences": {},
  "deployedLinkReferences": {}
}