{
  "_format": "hh-sol-artifact-1",
  "contractName": "DocumentRegistry",
  "sourceName": "contracts/DocumentRegistry.sol",
  "abi": [
    {
      "inputs": [],
      "stateMutability": "nonpayable",
      "type": "constructor"
    },
    {
      "anonymous": false,
      "inputs": [
        {
          "indexed": true,
          "internalType": "bytes32",
          "name": "docId",
          "type": "bytes32"
        },
        {
          "indexed": false,
          "internalType": "string",
          "name": "studentId",
          "type": "string"
        },
        {
          "indexed": false,
          "internalType": "string",
          "name": "documentType",
          "type": "string"
        }
      ],
      "name": "DocumentIssued",
      "type": "event"
    },
    {
      "anonymous": false,
      "inputs": [
        {
          "indexed": true,
          "internalType": "bytes32",
          "name": "docId",
          "type": "bytes32"
        },
        {
          "indexed": false,
          "internalType": "address",
          "name": "revokedBy",
          "type": "address"
        }
      ],
      "name": "DocumentRevoked",
      "type": "event"
    },
    {
      "anonymous": false,
      "inputs": [
        {
          "indexed": true,
          "internalType": "address",
          "name": "school",
          "type": "address"
        },
        {
          "indexed": false,
          "internalType": "string",
          "name": "name",
          "type": "string"
        }
      ],
      "name": "SchoolAuthorized",
      "type": "event"
    },
    {
      "inputs": [
        {
          "internalType": "address",
          "name": "school",
          "type": "address"
        },
        {
          "internalType": "string",
          "name": "name",
          "type": "string"
        }
      ],
      "name": "authorizeSchool",
      "outputs": [],
      "stateMutability": "nonpayable",
      "type": "function"
    },
    {
      "inputs": [
        {
          "internalType": "address",
          "name": "",
          "type": "address"
        }
      ],
      "name": "authorizedSchools",
      "outputs": [
        {
          "internalType": "bool",
          "name": "",
          "type": "bool"
        }
      ],
      "stateMutability": "view",
      "type": "function"
    },
    {
      "inputs": [
        {
          "internalType": "bytes32",
          "name": "docId",
          "type": "bytes32"
        }
      ],
      "name": "getDocument",
      "outputs": [
        {
          "components": [
            {
              "internalType": "bytes32",
              "name": "docId",
              "type": "bytes32"
            },
            {
              "internalType": "string",
              "name": "studentId",
              "type": "string"
            },
            {
              "internalType": "string",
              "name": "studentName",
              "type": "string"
            },
            {
              "internalType": "string",
              "name": "documentType",
              "type": "string"
            },
            {
              "internalType": "string",
              "name": "ipfsHash",
              "type": "string"
            },
            {
              "internalType": "uint256",
              "name": "issueDate",
              "type": "uint256"
            },
            {
              "internalType": "address",
              "name": "issuedBy",
              "type": "address"
            },
            {
              "internalType": "bool",
              "name": "isRevoked",
              "type": "bool"
            }
          ],
          "internalType": "struct DocumentRegistry.Document",
          "name": "",
          "type": "tuple"
        }
      ],
      "stateMutability": "view",
      "type": "function"
    },
    {
      "inputs": [
        {
          "internalType": "string",
          "name": "studentId",
          "type": "string"
        }
      ],
      "name": "getStudentDocuments",
      "outputs": [
        {
          "internalType": "bytes32[]",
          "name": "",
          "type": "bytes32[]"
        }
      ],
      "stateMutability": "view",
      "type": "function"
    },
    {
      "inputs": [
        {
          "internalType": "string",
          "name": "studentId",
          "type": "string"
        },
        {
          "internalType": "string",
          "name": "studentName",
          "type": "string"
        },
        {
          "internalType": "string",
          "name": "documentType",
          "type": "string"
        },
        {
          "internalType": "string",
          "name": "ipfsHash",
          "type": "string"
        }
      ],
      "name": "issueDocument",
      "outputs": [
        {
          "internalType": "bytes32",
          "name": "docId",
          "type": "bytes32"
        }
      ],
      "stateMutability": "nonpayable",
      "type": "function"
    },
    {
      "inputs": [],
      "name": "owner",
      "outputs": [
        {
          "internalType": "address",
          "name": "",
          "type": "address"
        }
      ],
      "stateMutability": "view",
      "type": "function"
    },
    {
      "inputs": [
        {
          "internalType": "bytes32",
          "name": "docId",
          "type": "bytes32"
        }
      ],
      "name": "revokeDocument",
      "outputs": [],
      "stateMutability": "nonpayable",
      "type": "function"
    },
    {
      "inputs": [
        {
          "internalType": "address",
          "name": "",
          "type": "address"
        }
      ],
      "name": "schoolNames",
      "outputs": [
        {
          "internalType": "string",
          "name": "",
          "type": "string"
        }
      ],
      "stateMutability": "view",
      "type": "function"
    },
    {
      "inputs": [
        {
          "internalType": "bytes32",
          "name": "docId",
          "type": "bytes32"
        }
      ],
      "name": "verifyDocument",
      "outputs": [
        {
          "internalType": "bool",
          "name": "",
          "type": "bool"
        }
      ],
      "stateMutability": "view",
      "type": "function"
    }
  ],
  "bytecode": "0x6080806040523461002857600080546001600160a01b031916331790556111b1908161002e8239f35b600080fdfe608080604052600436101561001357600080fd5b60003560e01c90816307798a9114610e6e575080634ba3022f14610da25780635a3cd9b414610b3b5780638da5cb5b14610b12578063952be80d146109e45780639b6e59f41461028b578063b10d6b4114610101578063c57c0115146100af5763fe35089f1461008257600080fd5b346100aa5760203660031901126100aa5760206100a0600435611150565b6040519015158152f35b600080fd5b346100aa5760203660031901126100aa576001600160a01b036100d0610ea9565b1660005260046020526100fd6100e96040600020610fa3565b604051918291602083526020830190610eec565b0390f35b346100aa576020806003193601126100aa576040519060043561012383610f66565b60008352600060e0606094858582015285604082015285808201528560808201528260a08201528260c08201520152806000526001825261016d6005604060002001541515611104565b6000526001815260406000206040519161018683610f66565b8154835261019660018301610fa3565b93818401948552836101aa60028501610fa3565b604082019081526102726101c060038701610fa3565b938084019485526101d360048801610fa3565b9060808501918252610261600660058a01549960a088019a8b5201549661025060c088019660ff60e060018060a01b039a8b8d168b52019a60a01c1615158a5261023c6040519e8f9e8f9d8e9181835251910152516101206101009d8e60408201520190610eec565b90518d601f19968782850301910152610eec565b9051838c83030160808d0152610eec565b9151908983030160a08a0152610eec565b945160c0870152511660e0850152511515908301520390f35b346100aa5760803660031901126100aa576004356001600160401b0381116100aa576102bb903690600401610ebf565b906024356001600160401b0381116100aa576102db903690600401610ebf565b9190926044356001600160401b0381116100aa576102fd903690600401610ebf565b9290946064356001600160401b0381116100aa5761031f903690600401610ebf565b959033600052600360205260ff604060002054161561099f5784156109645781156109275785156108e95786156108af5760055490886040516103916060828b60208201958c8c8837818d84019160208301600081523701426020820152876040820152036040810184520182610f82565b5190209760001983146108995760016103f193016005556103d5604051956103b887610f66565b8a87526103c6368a8a6110be565b956020880196875236916110be565b60408601526103e536898c6110be565b606086015236916110be565b60808301524260a08301523360c0830152600060e083015285600052600160205260406000209082518255518051906001600160401b03821161068e57819061044a826104416001870154610f2c565b60018701611049565b602090601f83116001146108275760009261081c575b50508160011b916000199060031b1c19161760018201555b60408201518051906001600160401b03821161068e5781906104aa826104a16002870154610f2c565b60028701611049565b602090601f83116001146107aa5760009261079f575b50508160011b916000199060031b1c19161760028201555b60608201518051906001600160401b03821161068e57819061050a826105016003870154610f2c565b60038701611049565b602090601f831160011461072d57600092610722575b50508160011b916000199060031b1c19161760038201555b60808201518051906001600160401b03821161068e576105688261055f6004860154610f2c565b60048601611049565b602090601f83116001146106af576006939291600091836106a4575b50508160011b916000199060031b1c19161760048201555b60a08301516005820155019060018060a01b0360c08201511682549160e060ff60a01b910151151560a01b16916affffffffffffffffffffff60a81b16171790556040518282823760208184810160028152030190209182546801000000000000000081101561068e57600181018085558110156106785760209686958661066d937fb6fadea892807ffc801a7e8aba2cf61cf7a38c71cc1184c3d970786d6abcfab7976000528a600020015561066060405195869560408752604087019161109d565b918483038a86015261109d565b0390a2604051908152f35b634e487b7160e01b600052603260045260246000fd5b634e487b7160e01b600052604160045260246000fd5b015190508a80610584565b906004840160005260206000209160005b601f198516811061070a575091839160019360069695601f198116106106f1575b505050811b01600482015561059c565b015160001960f88460031b161c191690558a80806106e1565b919260206001819286850151815501940192016106c0565b015190508980610520565b9250600384016000526020600020906000935b601f1984168510610784576001945083601f1981161061076b575b505050811b016003820155610538565b015160001960f88460031b161c1916905589808061075b565b81810151835560209485019460019093019290910190610740565b0151905089806104c0565b9250600284016000526020600020906000935b601f1984168510610801576001945083601f198116106107e8575b505050811b0160028201556104d8565b015160001960f88460031b161c191690558980806107d8565b818101518355602094850194600190930192909101906107bd565b015190508980610460565b9250600184016000526020600020906000935b601f198416851061087e576001945083601f19811610610865575b505050811b016001820155610478565b015160001960f88460031b161c19169055898080610855565b8181015183556020948501946001909301929091019061083a565b634e487b7160e01b600052601160045260246000fd5b60405162461bcd60e51b815260206004820152601260248201527112541194c81a185cda081c995c5d5a5c995960721b6044820152606490fd5b60405162461bcd60e51b8152602060048201526016602482015275111bd8dd5b595b9d081d1e5c19481c995c5d5a5c995960521b6044820152606490fd5b60405162461bcd60e51b815260206004820152601560248201527414dd1d59195b9d081b985b59481c995c5d5a5c9959605a1b6044820152606490fd5b60405162461bcd60e51b815260206004820152601360248201527214dd1d59195b9d081251081c995c5d5a5c9959606a1b6044820152606490fd5b60405162461bcd60e51b815260206004820152601860248201527f4e6f7420616e20617574686f72697a6564207363686f6f6c00000000000000006044820152606490fd5b346100aa576020806003193601126100aa57600435908160005260018152610a156005604060002001541515611104565b81600052600181526006604060002001805460ff8160a01c16610acd57600054336001600160a01b0391821614908115610ac1575b5015610a8b5760ff60a01b1916600160a01b1790556040513381527f0a7643bfbd115d98595cc7bd15944172c7ef0e4a7f48dcaf676dec4b74be93679190a2005b60405162461bcd60e51b815260048101849052600e60248201526d139bdd08185d5d1a1bdc9a5e995960921b6044820152606490fd5b90508116331485610a4a565b60405162461bcd60e51b815260048101849052601860248201527f446f63756d656e7420616c7265616479207265766f6b656400000000000000006044820152606490fd5b346100aa5760003660031901126100aa576000546040516001600160a01b039091168152602090f35b346100aa5760403660031901126100aa57610b54610ea9565b6001600160401b036024358181116100aa57610b74903690600401610ebf565b60005491939092916001600160a01b03919082163303610d645716928315610d2d57836000526020916003835260ff60406000205416610ce857846000526003835260406000206001908160ff1982541617905560048452604060002091851161068e57610bec85610be68454610f2c565b84611049565b6000601f8611600114610c5f579185807fa8047077c2a450926551411009705e53244402b75fbd76b5e07a3b2cb73300ac97969593610c4f95600093610c54575b501b906000198760031b1c19161790555b60405193838594855284019161109d565b0390a2005b85013592508a610c2d565b601f1986169083600052856000209160005b818110610cd357509187969593917fa8047077c2a450926551411009705e53244402b75fbd76b5e07a3b2cb73300ac98610c4f969410610cb9575b505085811b019055610c3e565b840135600019600389901b60f8161c191690558880610cac565b86830135845592840192918701918701610c71565b60405162461bcd60e51b815260048101849052601960248201527f5363686f6f6c20616c726561647920617574686f72697a6564000000000000006044820152606490fd5b60405162461bcd60e51b815260206004820152600f60248201526e496e76616c6964206164647265737360881b6044820152606490fd5b60405162461bcd60e51b81526020600482015260166024820152752737ba103a34329031b7b73a3930b1ba1037bbb732b960511b6044820152606490fd5b346100aa576020806003193601126100aa576004356001600160401b0381116100aa57610dd482913690600401610ebf565b91908260405193849283378101600281520301902060405190818382549182815201908192600052846000209060005b86828210610e5a578686610e1a82880383610f82565b604051928392818401908285525180915260408401929160005b828110610e4357505050500390f35b835185528695509381019392810192600101610e34565b835485529093019260019283019201610e04565b346100aa5760203660031901126100aa576020906001600160a01b03610e92610ea9565b166000526003825260ff6040600020541615158152f35b600435906001600160a01b03821682036100aa57565b9181601f840112156100aa578235916001600160401b0383116100aa57602083818601950101116100aa57565b919082519283825260005b848110610f18575050826000602080949584010152601f8019910116010190565b602081830181015184830182015201610ef7565b90600182811c92168015610f5c575b6020831014610f4657565b634e487b7160e01b600052602260045260246000fd5b91607f1691610f3b565b61010081019081106001600160401b0382111761068e57604052565b90601f801991011681019081106001600160401b0382111761068e57604052565b9060405191826000825492610fb784610f2c565b9081845260019485811690816000146110265750600114610fe3575b5050610fe192500383610f82565b565b9093915060005260209081600020936000915b81831061100e575050610fe193508201013880610fd3565b85548884018501529485019487945091830191610ff6565b915050610fe194506020925060ff191682840152151560051b8201013880610fd3565b90601f811161105757505050565b600091825260208220906020601f850160051c83019410611093575b601f0160051c01915b82811061108857505050565b81815560010161107c565b9092508290611073565b908060209392818452848401376000828201840152601f01601f1916010190565b9291926001600160401b03821161068e57604051916110e7601f8201601f191660200184610f82565b8294818452818301116100aa578281602093846000960137010152565b1561110b57565b60405162461bcd60e51b815260206004820152601760248201527f446f63756d656e7420646f6573206e6f742065786973740000000000000000006044820152606490fd5b60005260016020526040600020600581015415611175576006015460a01c60ff161590565b5060009056fea264697066735822122080cd5ec886fd9bb7b4e0c355b55c8665f482b357c3ea24508ebbf24700278f8f64736f6c63430008140033",
  "linkReferences": {},
  "deployedLinkReferences": {}
}