{
  "_format": "hh-sol-artifact-1",
  "contractName": "InternshipRegistry",
  "sourceName": "contracts/InternshipRegistry.sol",
  "abi": [
    {
      "inputs": [],
      "stateMutability": "nonpayable",
      "type": "constructor"
    },
    {
      "anonymous": false,
      "inputs": [
        {
          "indexed": true,
          "internalType": "bytes32",
          "name": "certId",
          "type": "bytes32"
        },
        {
          "indexed": false,
          "internalType": "string",
          "name": "studentId",
          "type": "string"
        },
        {
          "indexed": true,
          "internalType": "address",
          "name": "school",
          "type": "address"
        },
        {
          "indexed": false,
          "internalType": "string",
          "name": "companyName",
          "type": "string"
        }
      ],
      "name": "InternshipIssued",
      "type": "event"
    },
    {
      "anonymous": false,
      "inputs": [
        {
          "indexed": true,
          "internalType": "bytes32",
          "name": "certId",
          "type": "bytes32"
        },
        {
          "indexed": false,
          "internalType": "address",
          "name": "revokedBy",
          "type": "address"
        }
      ],
      "name": "InternshipRevoked",
      "type": "event"
    },
    {
      "anonymous": false,
      "inputs": [
        {
          "indexed": true,
          "internalType": "address",
          "name": "school",
          "type": "address"
        },
        {
          "indexed": false,
          "internalType": "string",
          "name": "name",
          "type": "string"
        }
      ],
      "name": "SchoolAuthorized",
      "type": "event"
    },
    {
      "anonymous": false,
      "inputs": [
        {
          "indexed": true,
          "internalType": "address",
          "name": "school",
          "type": "address"
        }
      ],
      "name": "SchoolRevoked",
      "type": "event"
    },
    {
      "inputs": [
        {
          "internalType": "address",
          "name": "school",
          "type": "address"
        },
        {
          "internalType": "string",
          "name": "name",
          "type": "string"
        }
      ],
      "name": "authorizeSchool",
      "outputs": [],
      "stateMutability": "nonpayable",
      "type": "function"
    },
    {
      "inputs": [
        {
          "internalType": "address",
          "name": "",
          "type": "address"
        }
      ],
      "name": "authorizedSchools",
      "outputs": [
        {
          "internalType": "bool",
          "name": "",
          "type": "bool"
        }
      ],
      "stateMutability": "view",
      "type": "function"
    },
    {
      "inputs": [
        {
          "internalType": "bytes32",
          "name": "certId",
          "type": "bytes32"
        }
      ],
      "name": "getCertificate",
      "outputs": [
        {
          "components": [
            {
              "internalType": "bytes32",
              "name": "certId",
              "type": "bytes32"
            },
            {
              "internalType": "string",
              "name": "studentId",
              "type": "string"
            },
            {
              "internalType": "string",
              "name": "studentName",
              "type": "string"
            },
            {
              "internalType": "string",
              "name": "schoolName",
              "type": "string"
            },
            {
              "internalType": "string",
              "name": "companyName",
              "type": "string"
            },
            {
              "internalType": "string",
              "name": "internshipRole",
              "type": "string"
            },
            {
              "internalType": "string",
              "name": "internshipCity",
              "type": "string"
            },
            {
              "internalType": "string",
              "name": "ipfsHash",
              "type": "string"
            },
            {
              "internalType": "uint256",
              "name": "startDate",
              "type": "uint256"
            },
            {
              "internalType": "uint256",
              "name": "endDate",
              "type": "uint256"
            },
            {
              "internalType": "uint256",
              "name": "issueDate",
              "type": "uint256"
            },
            {
              "internalType": "address",
              "name": "issuedBy",
              "type": "address"
            },
            {
              "internalType": "bool",
              "name": "isRevoked",
              "type": "bool"
            }
          ],
          "internalType": "struct InternshipRegistry.InternshipCertificate",
          "name": "",
          "type": "tuple"
        }
      ],
      "stateMutability": "view",
      "type": "function"
    },
    {
      "inputs": [
        {
          "internalType": "string",
          "name": "studentId",
          "type": "string"
        }
      ],
      "name": "getCertificateCount",
      "outputs": [
        {
          "internalType": "uint256",
          "name": "",
          "type": "uint256"
        }
      ],
      "stateMutability": "view",
      "type": "function"
    },
    {
      "inputs": [
        {
          "internalType": "string",
          "name": "studentId",
          "type": "string"
        }
      ],
      "name": "getStudentCertificates",
      "outputs": [
        {
          "internalType": "bytes32[]",
          "name": "",
          "type": "bytes32[]"
        }
      ],
      "stateMutability": "view",
      "type": "function"
    },
    {
      "inputs": [
        {
          "internalType": "string",
          "name": "studentId",
          "type": "string"
        },
        {
          "internalType": "string",
          "name": "studentName",
          "type": "string"
        },
        {
          "internalType": "string",
          "name": "companyName",
          "type": "string"
        },
        {
          "internalType": "string",
          "name": "internshipRole",
          "type": "string"
        },
        {
          "internalType": "string",
          "name": "internshipCity",
          "type": "string"
        },
        {
          "internalType": "string",
          "name": "ipfsHash",
          "type": "string"
        },
        {
          "internalType": "uint256",
          "name": "startDate",
          "type": "uint256"
        },
        {
          "internalType": "uint256",
          "name": "endDate",
          "type": "uint256"
        }
      ],
      "name": "issueInternship",
      "outputs": [
        {
          "internalType": "bytes32",
          "name": "certId",
          "type": "bytes32"
        }
      ],
      "stateMutability": "nonpayable",
      "type": "function"
    },
    {
      "inputs": [],
      "name": "owner",
      "outputs": [
        {
          "internalType": "address",
          "name": "",
          "type": "address"
        }
      ],
      "stateMutability": "view",
      "type": "function"
    },
    {
      "inputs": [
        {
          "internalType": "bytes32",
          "name": "certId",
          "type": "bytes32"
        }
      ],
      "name": "revokeCertificate",
      "outputs": [],
      "stateMutability": "nonpayable",
      "type": "function"
    },
    {
      "inputs": [
        {
          "internalType": "address",
          "name": "school",
          "type": "address"
        }
      ],
      "name": "revokeSchoolAuthorization",
      "outputs": [],
      "stateMutability": "nonpayable",
      "type": "function"
    },
    {
      "inputs": [
        {
          "internalType": "address",
          "name": "",
          "type": "address"
        }
      ],
      "name": "schoolNames",
      "outputs": [
        {
          "internalType": "string",
          "name": "",
          "type": "string"
        }
      ],
      "stateMutability": "view",
      "type": "function"
    },
    {
      "inputs": [
        {
          "internalType": "address",
          "name": "newOwner",
          "type": "address"
        }
      ],
      "name": "transferOwnership",
      "outputs": [],
      "stateMutability": "nonpayable",
      "type": "function"
    },
    {
      "inputs": [
        {
          "internalType": "bytes32",
          "name": "certId",
          "type": "bytes32"
        }
      ],
      "name": "verifyCertificate",
      "outputs": [
        {
          "internalType": "bool",
          "name": "",
          "type": "bool"
        }
      ],
      "stateMutability": "view",
      "type": "function"
    }
  ],
  "bytecode": "0x6080806040523461002857600080546001600160a01b03191633179055611901908161002e8239f35b600080fdfe6080604052600436101561001257600080fd5b60003560e01c80620b09321461147757806307798a91146114385780630f0ae620146113fa5780635a3cd9b4146112035780636041fc4614610600578063850c1768146105d85780638da5cb5b146105af578063ade3de2c146104f0578063c57c01151461049e578063c6cbc52a14610361578063f2fde38b146103115763f333fe081461009f57600080fd5b3461030c57602036600319011261030c5760043560006101806040516100c4816115c1565b828152606060208201526060604082015260608082015260606080820152606060a0820152606060c0820152606060e0820152826101008201528261012082015282610140820152826101608201520152806000526001602052610131600a604060002001541515611854565b6000526001602052604060002060ff600b6040519261014f846115c1565b8054845261015f600182016115fe565b6020850152610170600282016115fe565b6040850152610181600382016115fe565b6060850152610192600482016115fe565b60808501526101a3600582016115fe565b60a08501526101b4600682016115fe565b60c08501526101c5600782016115fe565b60e085015260088101546101008501526009810154610120850152600a810154610140850152015460018060a01b03811661016084015260a01c161515610180820152604051809160208252805160208301526101806102c761023960208401516101a060408701526101c08601906116a4565b6102b161029d610289610275610261604089015195601f1996878c83030160608d01526116a4565b6060890151868b83030160808c01526116a4565b6080880151858a83030160a08b01526116a4565b60a0870151848983030160c08a01526116a4565b60c0860151838883030160e08901526116a4565b9060e085015190868303016101008701526116a4565b9161010081015161012085015261012081015161014085015261014081015161016085015260018060a01b036101608201511682850152015115156101a08301520390f35b600080fd5b3461030c57602036600319011261030c5761032a611544565b600054906001600160a01b039061034433838516146116e4565b1690610351821515611729565b6001600160a01b03191617600055005b3461030c5760208060031936011261030c57600435908160005260018152610392600a604060002001541515611854565b8160005260018152600b604060002001805460ff8160a01c1661045957600054336001600160a01b039182161490811561044d575b50156104085760ff60a01b1916600160a01b1790556040513381527fa8dfd75f60959bec3b1ce1677de2b710bc43a7ccbdae7bffe1158637b024595a9190a2005b60405162461bcd60e51b815260048101849052601860248201527f4e6f7420617574686f72697a656420746f207265766f6b6500000000000000006044820152606490fd5b905081163314856103c7565b60405162461bcd60e51b815260048101849052601b60248201527f436572746966696361746520616c7265616479207265766f6b656400000000006044820152606490fd5b3461030c57602036600319011261030c576001600160a01b036104bf611544565b1660005260046020526104ec6104d860406000206115fe565b6040519182916020835260208301906116a4565b0390f35b3461030c5760208060031936011261030c576004356001600160401b03811161030c5761052461052a91369060040161155a565b906117dc565b60405190818382549182815201908192600052846000209060005b8682821061059b57868661055b828803836115dd565b604051928392818401908285525180915260408401929160005b82811061058457505050500390f35b835185528695509381019392810192600101610575565b835485529093019260019283019201610545565b3461030c57600036600319011261030c576000546040516001600160a01b039091168152602090f35b3461030c57602036600319011261030c5760206105f66004356118a0565b6040519015158152f35b3461030c5761010036600319011261030c576004356001600160401b03811161030c5761063190369060040161155a565b906024356001600160401b03811161030c5761065190369060040161155a565b90916044356001600160401b03811161030c5761067290369060040161155a565b9190926064356001600160401b03811161030c5761069490369060040161155a565b906084356001600160401b03811161030c576106b490369060040161155a565b6001600160401b0360a4351161030c576106d33660a43560040161155a565b93909433600052600360205260ff60406000205416156111be578b156111835786156111465788156111095780156110c457821561107f5760c43560e43511156110305760ff61073a8d60208b826040519384928337810160058152030190208b8d6117f5565b5416610fcc57600654888d61077c60746040518381946020830196873781013360601b60208201524260348201528660548201520360548101845201826115dd565b5190209b6000198214610fb6578c9860018f93016006553360005260046020526040600020926040519a6107af8c6115c1565b8b52366107bc918d61180e565b60208b015236906107cc9261180e565b60408901526107da906115fe565b60608801526107ea368a8c61180e565b608088015236906107fa9261180e565b60a0860152369061080a9261180e565b60c0840152369061081a9261180e565b60e082015260c43561010082015260e435610120820152426101408201523361016082015261018081016000905284600052600160205260406000208151815560208201518051906001600160401b038211610c3457819061088c826108836001870154611587565b60018701611767565b602090601f8311600114610f4457600092610f39575b50508160011b916000199060031b1c19161760018201555b60408201518051906001600160401b038211610c345781906108ec826108e36002870154611587565b60028701611767565b602090601f8311600114610ec757600092610ebc575b50508160011b916000199060031b1c19161760028201555b60608201518051906001600160401b038211610c3457819061094c826109436003870154611587565b60038701611767565b602090601f8311600114610e4a57600092610e3f575b50508160011b916000199060031b1c19161760038201555b60808201518051906001600160401b038211610c345781906109ac826109a36004870154611587565b60048701611767565b602090601f8311600114610dcd57600092610dc2575b50508160011b916000199060031b1c19161760048201555b60a08201518051906001600160401b038211610c34578190610a0c82610a036005870154611587565b60058701611767565b602090601f8311600114610d5057600092610d45575b50508160011b916000199060031b1c19161760058201555b60c08201518051906001600160401b038211610c34578190610a6c82610a636006870154611587565b60068701611767565b602090601f8311600114610cd357600092610cc8575b50508160011b916000199060031b1c19161760068201555b60e08201518051906001600160401b038211610c3457610aca82610ac16007860154611587565b60078601611767565b602090601f8311600114610c5557600b93929160009183610c4a575b50508160011b916000199060031b1c19161760078201555b61010083015160088201556101208301516009820155610140830151600a820155019060018060a01b036101608201511682549161018060ff60a01b910151151560a01b16916affffffffffffffffffffff60a81b16171790556040518582823760208187810160028152030190209081549568010000000000000000871015610c345760018701808455871015610c1e57610c138694856020997f27402b085adf369aa08e9a112a8a5a6be5d7143a44aa05ba1b6a87c727f60bc9966000528a6000200155610be2604051848682378a81868101600581520301902082896117f5565b600160ff19825416179055610c046040519485946040865260408601916117bb565b908382038a85015233976117bb565b0390a3604051908152f35b634e487b7160e01b600052603260045260246000fd5b634e487b7160e01b600052604160045260246000fd5b015190508a80610ae6565b906007840160005260206000209160005b601f1985168110610cb05750918391600193600b9695601f19811610610c97575b505050811b016007820155610afe565b015160001960f88460031b161c191690558a8080610c87565b91926020600181928685015181550194019201610c66565b015190508980610a82565b9250600684016000526020600020906000935b601f1984168510610d2a576001945083601f19811610610d11575b505050811b016006820155610a9a565b015160001960f88460031b161c19169055898080610d01565b81810151835560209485019460019093019290910190610ce6565b015190508980610a22565b9250600584016000526020600020906000935b601f1984168510610da7576001945083601f19811610610d8e575b505050811b016005820155610a3a565b015160001960f88460031b161c19169055898080610d7e565b81810151835560209485019460019093019290910190610d63565b0151905089806109c2565b9250600484016000526020600020906000935b601f1984168510610e24576001945083601f19811610610e0b575b505050811b0160048201556109da565b015160001960f88460031b161c19169055898080610dfb565b81810151835560209485019460019093019290910190610de0565b015190508980610962565b9250600384016000526020600020906000935b601f1984168510610ea1576001945083601f19811610610e88575b505050811b01600382015561097a565b015160001960f88460031b161c19169055898080610e78565b81810151835560209485019460019093019290910190610e5d565b015190508980610902565b9250600284016000526020600020906000935b601f1984168510610f1e576001945083601f19811610610f05575b505050811b01600282015561091a565b015160001960f88460031b161c19169055898080610ef5565b81810151835560209485019460019093019290910190610eda565b0151905089806108a2565b9250600184016000526020600020906000935b601f1984168510610f9b576001945083601f19811610610f82575b505050811b0160018201556108ba565b015160001960f88460031b161c19169055898080610f72565b81810151835560209485019460019093019290910190610f57565b634e487b7160e01b600052601160045260246000fd5b60405162461bcd60e51b815260206004820152603660248201527f496e7465726e7368697020636572746966696361746520616c72656164792069604482015275737375656420666f72207468697320636f6d70616e7960501b6064820152608490fd5b60405162461bcd60e51b815260206004820152602160248201527f456e642064617465206d757374206265206166746572207374617274206461746044820152606560f81b6064820152608490fd5b60405162461bcd60e51b815260206004820152601860248201527f496e7465726e73686970206369747920726571756972656400000000000000006044820152606490fd5b60405162461bcd60e51b815260206004820152601860248201527f496e7465726e7368697020726f6c6520726571756972656400000000000000006044820152606490fd5b60405162461bcd60e51b815260206004820152601560248201527410dbdb5c185b9e481b985b59481c995c5d5a5c9959605a1b6044820152606490fd5b60405162461bcd60e51b815260206004820152601560248201527414dd1d59195b9d081b985b59481c995c5d5a5c9959605a1b6044820152606490fd5b60405162461bcd60e51b815260206004820152601360248201527214dd1d59195b9d081251081c995c5d5a5c9959606a1b6044820152606490fd5b60405162461bcd60e51b815260206004820152601860248201527f4e6f7420616e20617574686f72697a6564207363686f6f6c00000000000000006044820152606490fd5b3461030c57604036600319011261030c5761121c611544565b6001600160401b0360243581811161030c5761123c90369060040161155a565b91909260018060a01b0390611256826000541633146116e4565b1692611263841515611729565b836000526020916003835260ff604060002054166113b557846000526003835260406000206001908160ff19825416179055600484526040600020918511610c34576112b9856112b38454611587565b84611767565b6000601f861160011461132c579185807fa8047077c2a450926551411009705e53244402b75fbd76b5e07a3b2cb73300ac9796959361131c95600093611321575b501b906000198760031b1c19161790555b6040519383859485528401916117bb565b0390a2005b85013592508a6112fa565b601f1986169083600052856000209160005b8181106113a057509187969593917fa8047077c2a450926551411009705e53244402b75fbd76b5e07a3b2cb73300ac9861131c969410611386575b505085811b01905561130b565b840135600019600389901b60f8161c191690558880611379565b8683013584559284019291870191870161133e565b60405162461bcd60e51b815260048101849052601960248201527f5363686f6f6c20616c726561647920617574686f72697a6564000000000000006044820152606490fd5b3461030c57602036600319011261030c576004356001600160401b03811161030c5761142f610524602092369060040161155a565b54604051908152f35b3461030c57602036600319011261030c576001600160a01b03611459611544565b166000526003602052602060ff604060002054166040519015158152f35b3461030c57602036600319011261030c57611490611544565b6000546001600160a01b0391906114aa90831633146116e4565b1680600052600360205260ff60406000205416156114ff57806000526003602052604060002060ff1981541690557fc693642ba16feaff6d4367ba911e06143fe4707457c48bd60de0fc470a5384aa600080a2005b60405162461bcd60e51b815260206004820152601860248201527f5363686f6f6c206973206e6f7420617574686f72697a656400000000000000006044820152606490fd5b600435906001600160a01b038216820361030c57565b9181601f8401121561030c578235916001600160401b03831161030c576020838186019501011161030c57565b90600182811c921680156115b7575b60208310146115a157565b634e487b7160e01b600052602260045260246000fd5b91607f1691611596565b6101a081019081106001600160401b03821117610c3457604052565b90601f801991011681019081106001600160401b03821117610c3457604052565b906040519182600082549261161284611587565b908184526001948581169081600014611681575060011461163e575b505061163c925003836115dd565b565b9093915060005260209081600020936000915b81831061166957505061163c9350820101388061162e565b85548884018501529485019487945091830191611651565b91505061163c94506020925060ff191682840152151560051b820101388061162e565b919082519283825260005b8481106116d0575050826000602080949584010152601f8019910116010190565b6020818301810151848301820152016116af565b156116eb57565b60405162461bcd60e51b81526020600482015260166024820152752737ba103a34329031b7b73a3930b1ba1037bbb732b960511b6044820152606490fd5b1561173057565b60405162461bcd60e51b815260206004820152600f60248201526e496e76616c6964206164647265737360881b6044820152606490fd5b90601f811161177557505050565b600091825260208220906020601f850160051c830194106117b1575b601f0160051c01915b8281106117a657505050565b81815560010161179a565b9092508290611791565b908060209392818452848401376000828201840152601f01601f1916010190565b6020908260405193849283378101600281520301902090565b6020919283604051948593843782019081520301902090565b9291926001600160401b038211610c345760405191611837601f8201601f1916602001846115dd565b82948184528183011161030c578281602093846000960137010152565b1561185b57565b60405162461bcd60e51b815260206004820152601a60248201527f436572746966696361746520646f6573206e6f742065786973740000000000006044820152606490fd5b60005260016020526040600020600a810154156118c557600b015460a01c60ff161590565b5060009056fea26469706673582212200e7ee18897b57bc6195daab21c80ade9e64259492bb14a52d13aeedea832eb4764736f6c63430008140033",
  "linkReferences": {},
  "deployedLinkReferences": {}
}