{
  "_format": "hh-sol-artifact-1",
  "contractName": "InternshipRegistry",
  "sourceName": "contracts/InternshipRegistry.sol",
  "abi": [
    {
      "inputs": [],
      "stateMutability": "nonpayable",
      "type": "constructor"
    },
    {
      "anonymous": false,
      "inputs": [
        {
          "indexed": true,
          "internalType": "bytes32",
          "name": "certId",
          "type": "bytes32"
        },
        {
          "indexed": false,
          "internalType": "string",
          "name": "studentId",
          "type": "string"
        },
        {
          "indexed": true,
          "internalType": "address",
          "name": "school",
          "type": "address"
        },
        {
          "indexed": false,
          "internalType": "string",
          "name": "companyName",
          "type": "string"
        }
      ],
      "name": "InternshipIssued",
      "type": "event"
    },
    {
      "anonymous": false,
      "inputs": [
        {
          "indexed": true,
          "internalType": "bytes32",
          "name": "certId",
          "type": "bytes32"
        },
        {
          "indexed": false,
          "internalType": "address",
          "name": "revokedBy",
          "type": "address"
        }
      ],
      "name": "InternshipRevoked",
      "type": "event"
    },
    {
      "anonymous": false,
      "inputs": [
        {
          "indexed": true,
          "internalType": "bytes32",
          "name": "certId",
          "type": "bytes32"
        },
        {
          "indexed": false,
          "internalType": "address",
          "name": "unrevokedBy",
          "type": "address"
        }
      ],
      "name": "InternshipUnrevoked",
      "type": "event"
    },
    {
      "anonymous": false,
      "inputs": [
        {
          "indexed": true,
          "internalType": "address",
          "name": "school",
          "type": "address"
        },
        {
          "indexed": false,
          "internalType": "string",
          "name": "name",
          "type": "string"
        }
      ],
      "name": "SchoolAuthorized",
      "type": "event"
    },
    {
      "anonymous": false,
      "inputs": [
        {
          "indexed": true,
          "internalType": "address",
          "name": "school",
          "type": "address"
        }
      ],
      "name": "SchoolRevoked",
      "type": "event"
    },
    {
      "inputs": [
        {
          "internalType": "address",
          "name": "school",
          "type": "address"
        },
        {
          "internalType": "string",
          "name": "name",
          "type": "string"
        }
      ],
      "name": "authorizeSchool",
      "outputs": [],
      "stateMutability": "nonpayable",
      "type": "function"
    },
    {
      "inputs": [
        {
          "internalType": "address",
          "name": "",
          "type": "address"
        }
      ],
      "name": "authorizedSchools",
      "outputs": [
        {
          "internalType": "bool",
          "name": "",
          "type": "bool"
        }
      ],
      "stateMutability": "view",
      "type": "function"
    },
    {
      "inputs": [
        {
          "internalType": "bytes32",
          "name": "certId",
          "type": "bytes32"
        }
      ],
      "name": "getCertificate",
      "outputs": [
        {
          "components": [
            {
              "internalType": "bytes32",
              "name": "certId",
              "type": "bytes32"
            },
            {
              "internalType": "string",
              "name": "studentId",
              "type": "string"
            },
            {
              "internalType": "string",
              "name": "studentName",
              "type": "string"
            },
            {
              "internalType": "string",
              "name": "schoolName",
              "type": "string"
            },
            {
              "internalType": "string",
              "name": "companyName",
              "type": "string"
            },
            {
              "internalType": "string",
              "name": "internshipRole",
              "type": "string"
            },
            {
              "internalType": "string",
              "name": "internshipCity",
              "type": "string"
            },
            {
              "internalType": "string",
              "name": "ipfsHash",
              "type": "string"
            },
            {
              "internalType": "uint256",
              "name": "startDate",
              "type": "uint256"
            },
            {
              "internalType": "uint256",
              "name": "endDate",
              "type": "uint256"
            },
            {
              "internalType": "uint256",
              "name": "issueDate",
              "type": "uint256"
            },
            {
              "internalType": "address",
              "name": "issuedBy",
              "type": "address"
            },
            {
              "internalType": "bool",
              "name": "isRevoked",
              "type": "bool"
            }
          ],
          "internalType": "struct InternshipRegistry.InternshipCertificate",
          "name": "",
          "type": "tuple"
        }
      ],
      "stateMutability": "view",
      "type": "function"
    },
    {
      "inputs": [
        {
          "internalType": "string",
          "name": "studentId",
          "type": "string"
        }
      ],
      "name": "getCertificateCount",
      "outputs": [
        {
          "internalType": "uint256",
          "name": "",
          "type": "uint256"
        }
      ],
      "stateMutability": "view",
      "type": "function"
    },
    {
      "inputs": [
        {
          "internalType": "string",
          "name": "studentId",
          "type": "string"
        }
      ],
      "name": "getStudentCertificates",
      "outputs": [
        {
          "internalType": "bytes32[]",
          "name": "",
          "type": "bytes32[]"
        }
      ],
      "stateMutability": "view",
      "type": "function"
    },
    {
      "inputs": [
        {
          "internalType": "string",
          "name": "studentId",
          "type": "string"
        },
        {
          "internalType": "string",
          "name": "studentName",
          "type": "string"
        },
        {
          "internalType": "string",
          "name": "companyName",
          "type": "string"
        },
        {
          "internalType": "string",
          "name": "internshipRole",
          "type": "string"
        },
        {
          "internalType": "string",
          "name": "internshipCity",
          "type": "string"
        },
        {
          "internalType": "string",
          "name": "ipfsHash",
          "type": "string"
        },
        {
          "internalType": "uint256",
          "name": "startDate",
          "type": "uint256"
        },
        {
          "internalType": "uint256",
          "name": "endDate",
          "type": "uint256"
        }
      ],
      "name": "issueInternship",
      "outputs": [
        {
          "internalType": "bytes32",
          "name": "certId",
          "type": "bytes32"
        }
      ],
      "stateMutability": "nonpayable",
      "type": "function"
    },
    {
      "inputs": [],
      "name": "owner",
      "outputs": [
        {
          "internalType": "address",
          "name": "",
          "type": "address"
        }
      ],
      "stateMutability": "view",
      "type": "function"
    },
    {
      "inputs": [
        {
          "internalType": "bytes32",
          "name": "certId",
          "type": "bytes32"
        }
      ],
      "name": "revokeCertificate",
      "outputs": [],
      "stateMutability": "nonpayable",
      "type": "function"
    },
    {
      "inputs": [
        {
          "internalType": "address",
          "name": "school",
          "type": "address"
        }
      ],
      "name": "revokeSchoolAuthorization",
      "outputs": [],
      "stateMutability": "nonpayable",
      "type": "function"
    },
    {
      "inputs": [
        {
          "internalType": "address",
          "name": "",
          "type": "address"
        }
      ],
      "name": "schoolNames",
      "outputs": [
        {
          "internalType": "string",
          "name": "",
          "type": "string"
        }
      ],
      "stateMutability": "view",
      "type": "function"
    },
    {
      "inputs": [
        {
          "internalType": "address",
          "name": "newOwner",
          "type": "address"
        }
      ],
      "name": "transferOwnership",
      "outputs": [],
      "stateMutability": "nonpayable",
      "type": "function"
    },
    {
      "inputs": [
        {
          "internalType": "bytes32",
          "name": "certId",
          "type": "bytes32"
        }
      ],
      "name": "unrevokeCertificate",
      "outputs": [],
      "stateMutability": "nonpayable",
      "type": "function"
    },
    {
      "inputs": [
        {
          "internalType": "bytes32",
          "name": "certId",
          "type": "bytes32"
        }
      ],
      "name": "verifyCertificate",
      "outputs": [
        {
          "internalType": "bool",
          "name": "",
          "type": "bool"
        }
      ],
      "stateMutability": "view",
      "type": "function"
    }
  ],
  "bytecode": "0x6080806040523461002857600080546001600160a01b03191633179055611cfe908161002e8239f35b600080fdfe6080604052600436101561001257600080fd5b60003560e01c80620b09321461165557806307798a91146116165780630f0ae620146115d857806318ca775b146114825780635a3cd9b41461128b5780636041fc4614610676578063850c17681461064e5780638da5cb5b14610625578063ade3de2c14610566578063c57c01151461050a578063c6cbc52a146103ab578063f2fde38b1461035b5763f333fe08146100aa57600080fd5b346103565760203660031901126103565760043560006101806040516100cf81611835565b828152606060208201526060604082015260608082015260606080820152606060a0820152606060c0820152606060e082015282610100820152826101208201528261014082015282610160820152015280600052600160205261013c600a604060002001541515611a75565b6000526001602052604060002060ff600b6040519261015a84611835565b8054845260405161017981610172816001860161179f565b0382611851565b602085015260405161019281610172816002860161179f565b60408501526040516101ab81610172816003860161179f565b60608501526040516101c481610172816004860161179f565b60808501526040516101dd81610172816005860161179f565b60a08501526040516101f681610172816006860161179f565b60c085015260405161020f81610172816007860161179f565b60e085015260088101546101008501526009810154610120850152600a810154610140850152015460018060a01b03811661016084015260a01c1615156101808201526040518091602082528051602083015261018061031161028360208401516101a060408701526101c0860190611872565b6102fb6102e76102d36102bf6102ab604089015195601f1996878c83030160608d0152611872565b6060890151868b83030160808c0152611872565b6080880151858a83030160a08b0152611872565b60a0870151848983030160c08a0152611872565b60c0860151838883030160e0890152611872565b9060e08501519086830301610100870152611872565b9161010081015161012085015261012081015161014085015261014081015161016085015260018060a01b036101608201511682850152015115156101a08301520390f35b600080fd5b3461035657602036600319011261035657610374611722565b600054906001600160a01b039061038e33838516146118b2565b169061039b8215156118f7565b6001600160a01b03191617600055005b3461035657602080600319360112610356576004359081600052600181526103dc600a604060002001541515611a75565b81600052600181526040600020600b8101805460ff8160a01c166104c557600054336001600160a01b03918216149081156104b9575b50156104745760ff60a01b1916600160a01b1790557fa8dfd75f60959bec3b1ce1677de2b710bc43a7ccbdae7bffe1158637b024595a919061046390600461045c60018301611ac1565b9101611b54565b805460ff19169055604051338152a2005b60405162461bcd60e51b815260048101859052601860248201527f4e6f7420617574686f72697a656420746f207265766f6b6500000000000000006044820152606490fd5b90508116331486610412565b60405162461bcd60e51b815260048101859052601b60248201527f436572746966696361746520616c7265616479207265766f6b656400000000006044820152606490fd5b34610356576020366003190112610356576001600160a01b0361052b611722565b16600052600460205261056261017261054e60406000206040519283809261179f565b604051918291602083526020830190611872565b0390f35b3461035657602080600319360112610356576004356001600160401b0381116103565761059a6105a0913690600401611738565b906119aa565b60405190818382549182815201908192600052846000209060005b868282106106115786866105d182880383611851565b604051928392818401908285525180915260408401929160005b8281106105fa57505050500390f35b8351855286955093810193928101926001016105eb565b8354855290930192600192830192016105bb565b34610356576000366003190112610356576000546040516001600160a01b039091168152602090f35b3461035657602036600319011261035657602061066c600435611be6565b6040519015158152f35b3461035657610100366003190112610356576004356001600160401b038111610356576106a7903690600401611738565b906024356001600160401b038111610356576106c7903690600401611738565b916044356001600160401b038111610356576106e7903690600401611738565b9190926064356001600160401b03811161035657610709903690600401611738565b906084356001600160401b03811161035657610729903690600401611738565b60a4356001600160401b03811161035657610748903690600401611738565b93909433600052600360205260ff6040600020541615611246578b1561120b578a156111ce57881561119157801561114c5782156111075760c43560e43511156110b8578b898b60ff6107b18c85604051918237602081878101600581520301902084846119c3565b5416159283156110a5575b5050501561103b578b600654976040516020810190838c8337808481013360601b60208201524260348201528c6054820152036054810182526074016108029082611851565b5190209c6108108e9a6119dc565b6006553360005260046020526040600020926040519a61082f8c611835565b8b523661083c918d611a01565b60208b0152369061084c92611a01565b604089015260405161085f81809361179f565b0361086a9082611851565b606088015261087a368a8c611a01565b6080880152369061088a92611a01565b60a0860152369061089a92611a01565b60c084015236906108aa92611a01565b60e082015260c43561010082015260e435610120820152426101408201523361016082015261018081016000905284600052600160205260406000208151815560208201518051906001600160401b038211610cb957819061091c826109136001870154611765565b60018701611935565b602090601f8311600114610fc957600092610fbe575b50508160011b916000199060031b1c19161760018201555b60408201518051906001600160401b038211610cb957819061097c826109736002870154611765565b60028701611935565b602090601f8311600114610f4c57600092610f41575b50508160011b916000199060031b1c19161760028201555b60608201518051906001600160401b038211610cb95781906109dc826109d36003870154611765565b60038701611935565b602090601f8311600114610ecf57600092610ec4575b50508160011b916000199060031b1c19161760038201555b60808201518051906001600160401b038211610cb9578190610a3c82610a336004870154611765565b60048701611935565b602090601f8311600114610e5257600092610e47575b50508160011b916000199060031b1c19161760048201555b60a08201518051906001600160401b038211610cb9578190610a9c82610a936005870154611765565b60058701611935565b602090601f8311600114610dd557600092610dca575b50508160011b916000199060031b1c19161760058201555b60c08201518051906001600160401b038211610cb9578190610afc82610af36006870154611765565b60068701611935565b602090601f8311600114610d5857600092610d4d575b50508160011b916000199060031b1c19161760068201555b60e08201518051906001600160401b038211610cb957610b5a82610b516007860154611765565b60078601611935565b602090601f8311600114610cda57600b93929160009183610ccf575b50508160011b916000199060031b1c19161760078201555b61010083015160088201556101208301516009820155610140830151600a820155019060018060a01b036101608201511682549161018060ff60a01b910151151560a01b16916affffffffffffffffffffff60a81b16171790556040518582823760208187810160028152030190209081549568010000000000000000871015610cb957610cae8694610c4a897f27402b085adf369aa08e9a112a8a5a6be5d7143a44aa05ba1b6a87c727f60bc996600160209c018155611a47565b81549060031b9088821b91600019901b1916179055610c7d604051848682378a81868101600581520301902082896119c3565b600160ff19825416179055610c9f604051948594604086526040860191611989565b908382038a8501523397611989565b0390a3604051908152f35b634e487b7160e01b600052604160045260246000fd5b015190508a80610b76565b906007840160005260206000209160005b601f1985168110610d355750918391600193600b9695601f19811610610d1c575b505050811b016007820155610b8e565b015160001960f88460031b161c191690558a8080610d0c565b91926020600181928685015181550194019201610ceb565b015190508980610b12565b9250600684016000526020600020906000935b601f1984168510610daf576001945083601f19811610610d96575b505050811b016006820155610b2a565b015160001960f88460031b161c19169055898080610d86565b81810151835560209485019460019093019290910190610d6b565b015190508980610ab2565b9250600584016000526020600020906000935b601f1984168510610e2c576001945083601f19811610610e13575b505050811b016005820155610aca565b015160001960f88460031b161c19169055898080610e03565b81810151835560209485019460019093019290910190610de8565b015190508980610a52565b9250600484016000526020600020906000935b601f1984168510610ea9576001945083601f19811610610e90575b505050811b016004820155610a6a565b015160001960f88460031b161c19169055898080610e80565b81810151835560209485019460019093019290910190610e65565b0151905089806109f2565b9250600384016000526020600020906000935b601f1984168510610f26576001945083601f19811610610f0d575b505050811b016003820155610a0a565b015160001960f88460031b161c19169055898080610efd565b81810151835560209485019460019093019290910190610ee2565b015190508980610992565b9250600284016000526020600020906000935b601f1984168510610fa3576001945083601f19811610610f8a575b505050811b0160028201556109aa565b015160001960f88460031b161c19169055898080610f7a565b81810151835560209485019460019093019290910190610f5f565b015190508980610932565b9250600184016000526020600020906000935b601f1984168510611020576001945083601f19811610611007575b505050811b01600182015561094a565b015160001960f88460031b161c19169055898080610ff7565b81810151835560209485019460019093019290910190610fdc565b608460405162461bcd60e51b815260206004820152604060248201527f416e2061637469766520696e7465726e7368697020636572746966696361746560448201527f20616c72656164792065786973747320666f72207468697320636f6d70616e796064820152fd5b6110b093508b611c11565b898b8e6107bc565b60405162461bcd60e51b815260206004820152602160248201527f456e642064617465206d757374206265206166746572207374617274206461746044820152606560f81b6064820152608490fd5b60405162461bcd60e51b815260206004820152601860248201527f496e7465726e73686970206369747920726571756972656400000000000000006044820152606490fd5b60405162461bcd60e51b815260206004820152601860248201527f496e7465726e7368697020726f6c6520726571756972656400000000000000006044820152606490fd5b60405162461bcd60e51b815260206004820152601560248201527410dbdb5c185b9e481b985b59481c995c5d5a5c9959605a1b6044820152606490fd5b60405162461bcd60e51b815260206004820152601560248201527414dd1d59195b9d081b985b59481c995c5d5a5c9959605a1b6044820152606490fd5b60405162461bcd60e51b815260206004820152601360248201527214dd1d59195b9d081251081c995c5d5a5c9959606a1b6044820152606490fd5b60405162461bcd60e51b815260206004820152601860248201527f4e6f7420616e20617574686f72697a6564207363686f6f6c00000000000000006044820152606490fd5b34610356576040366003190112610356576112a4611722565b6001600160401b03602435818111610356576112c4903690600401611738565b91909260018060a01b03906112de826000541633146118b2565b16926112eb8415156118f7565b836000526020916003835260ff6040600020541661143d57846000526003835260406000206001908160ff19825416179055600484526040600020918511610cb9576113418561133b8454611765565b84611935565b6000601f86116001146113b4579185807fa8047077c2a450926551411009705e53244402b75fbd76b5e07a3b2cb73300ac979695936113a4956000936113a9575b501b906000198760031b1c19161790555b604051938385948552840191611989565b0390a2005b85013592508a611382565b601f1986169083600052856000209160005b81811061142857509187969593917fa8047077c2a450926551411009705e53244402b75fbd76b5e07a3b2cb73300ac986113a496941061140e575b505085811b019055611393565b840135600019600389901b60f8161c191690558880611401565b868301358455928401929187019187016113c6565b60405162461bcd60e51b815260048101849052601960248201527f5363686f6f6c20616c726561647920617574686f72697a6564000000000000006044820152606490fd5b3461035657602080600319360112610356576004359081600052600181526114b3600a604060002001541515611a75565b81600052600181526040600020600b8101805460ff8160a01c161561159357600054336001600160a01b0391821614908115611587575b50156115425760ff60a01b191690557f0f0ef3afd4a77343e949a1d68857d4a32eb49f99def668158691471af2726fcb919061152e90600461045c60018301611ac1565b805460ff19166001179055604051338152a2005b60405162461bcd60e51b815260048101859052601a60248201527f4e6f7420617574686f72697a656420746f20756e7265766f6b650000000000006044820152606490fd5b905081163314866114ea565b60405162461bcd60e51b815260048101859052601a60248201527f4365727469666963617465206973206e6f74207265766f6b65640000000000006044820152606490fd5b34610356576020366003190112610356576004356001600160401b0381116103565761160d61059a6020923690600401611738565b54604051908152f35b34610356576020366003190112610356576001600160a01b03611637611722565b166000526003602052602060ff604060002054166040519015158152f35b346103565760203660031901126103565761166e611722565b6000546001600160a01b03919061168890831633146118b2565b1680600052600360205260ff60406000205416156116dd57806000526003602052604060002060ff1981541690557fc693642ba16feaff6d4367ba911e06143fe4707457c48bd60de0fc470a5384aa600080a2005b60405162461bcd60e51b815260206004820152601860248201527f5363686f6f6c206973206e6f7420617574686f72697a656400000000000000006044820152606490fd5b600435906001600160a01b038216820361035657565b9181601f84011215610356578235916001600160401b038311610356576020838186019501011161035657565b90600182811c92168015611795575b602083101461177f57565b634e487b7160e01b600052602260045260246000fd5b91607f1691611774565b90600092918054916117b083611765565b91828252600193848116908160001461181257506001146117d2575b50505050565b90919394506000526020928360002092846000945b8386106117fe5750505050010190388080806117cc565b8054858701830152940193859082016117e7565b9294505050602093945060ff191683830152151560051b010190388080806117cc565b6101a081019081106001600160401b03821117610cb957604052565b90601f801991011681019081106001600160401b03821117610cb957604052565b919082519283825260005b84811061189e575050826000602080949584010152601f8019910116010190565b60208183018101518483018201520161187d565b156118b957565b60405162461bcd60e51b81526020600482015260166024820152752737ba103a34329031b7b73a3930b1ba1037bbb732b960511b6044820152606490fd5b156118fe57565b60405162461bcd60e51b815260206004820152600f60248201526e496e76616c6964206164647265737360881b6044820152606490fd5b90601f811161194357505050565b600091825260208220906020601f850160051c8301941061197f575b601f0160051c01915b82811061197457505050565b818155600101611968565b909250829061195f565b908060209392818452848401376000828201840152601f01601f1916010190565b6020908260405193849283378101600281520301902090565b6020919283604051948593843782019081520301902090565b60001981146119eb5760010190565b634e487b7160e01b600052601160045260246000fd5b9291926001600160401b038211610cb95760405191611a2a601f8201601f191660200184611851565b829481845281830111610356578281602093846000960137010152565b8054821015611a5f5760005260206000200190600090565b634e487b7160e01b600052603260045260246000fd5b15611a7c57565b60405162461bcd60e51b815260206004820152601a60248201527f436572746966696361746520646f6573206e6f742065786973740000000000006044820152606490fd5b604051908160008254611ad381611765565b93600191808316908115611b385750600114611afb575b505060209250600581520301902090565b90915060005260209081600020906000915b858310611b24575050505060209181013880611aea565b805487840152869450918301918101611b0d565b92505050602093915060ff191682528015150281013880611aea565b9060405180926000908054611b6881611765565b91600191808316908115611bcc5750600114611b8e575b50505060209281520301902090565b60009081526020808220969450915b838210611bb65750505060209350820190923880611b7f565b8654888301529586019587955090820190611b9d565b60ff19168652505050801515028201905060203880611b7f565b60005260016020526040600020600a81015415611c0b57600b015460a01c60ff161590565b50600090565b91929060409281845192839283378101600281526020928391030190206000948154955b868110611c485750505050505050600190565b611c528184611a47565b90549060031b1c60005260018452856000208651611c7781610172816004860161179f565b858151910120611c88368886611a01565b868151910120149081611cb5575b50611ca957611ca4906119dc565b611c35565b50505050505050600090565b60ff9150600b015460a01c161538611c9656fea2646970667358221220a7a24959e76516f8f4fe894ecc80ff0e2791b580cc509524753cf275bbddf89864736f6c63430008140033",
  "linkReferences": {},
  "deployedLinkReferences": {}
}