{
  "_format": "hh-sol-artifact-1",
  "contractName": "RankRegistry",
  "sourceName": "contracts/StudentRegistry.sol",
  "abi": [
    {
      "inputs": [],
      "stateMutability": "nonpayable",
      "type": "constructor"
    },
    {
      "anonymous": false,
      "inputs": [
        {
          "indexed": true,
          "internalType": "bytes32",
          "name": "certId",
          "type": "bytes32"
        },
        {
          "indexed": true,
          "internalType": "uint256",
          "name": "matricule",
          "type": "uint256"
        },
        {
          "indexed": true,
          "internalType": "address",
          "name": "issuedBy",
          "type": "address"
        },
        {
          "indexed": false,
          "internalType": "string",
          "name": "documentType",
          "type": "string"
        }
      ],
      "name": "DocumentIssued",
      "type": "event"
    },
    {
      "anonymous": false,
      "inputs": [
        {
          "indexed": true,
          "internalType": "bytes32",
          "name": "certId",
          "type": "bytes32"
        },
        {
          "indexed": false,
          "internalType": "address",
          "name": "revokedBy",
          "type": "address"
        }
      ],
      "name": "DocumentRevoked",
      "type": "event"
    },
    {
      "anonymous": false,
      "inputs": [
        {
          "indexed": true,
          "internalType": "bytes32",
          "name": "certId",
          "type": "bytes32"
        },
        {
          "indexed": false,
          "internalType": "address",
          "name": "unrevokedBy",
          "type": "address"
        }
      ],
      "name": "DocumentUnrevoked",
      "type": "event"
    },
    {
      "anonymous": false,
      "inputs": [
        {
          "indexed": true,
          "internalType": "address",
          "name": "school",
          "type": "address"
        },
        {
          "indexed": false,
          "internalType": "string",
          "name": "name",
          "type": "string"
        }
      ],
      "name": "SchoolAuthorized",
      "type": "event"
    },
    {
      "anonymous": false,
      "inputs": [
        {
          "indexed": true,
          "internalType": "address",
          "name": "school",
          "type": "address"
        }
      ],
      "name": "SchoolRevoked",
      "type": "event"
    },
    {
      "anonymous": false,
      "inputs": [
        {
          "indexed": true,
          "internalType": "uint256",
          "name": "matricule",
          "type": "uint256"
        },
        {
          "indexed": false,
          "internalType": "string",
          "name": "name",
          "type": "string"
        },
        {
          "indexed": false,
          "internalType": "string",
          "name": "familyName",
          "type": "string"
        }
      ],
      "name": "StudentAdded",
      "type": "event"
    },
    {
      "anonymous": false,
      "inputs": [
        {
          "indexed": true,
          "internalType": "uint256",
          "name": "matricule",
          "type": "uint256"
        }
      ],
      "name": "StudentDeleted",
      "type": "event"
    },
    {
      "anonymous": false,
      "inputs": [
        {
          "indexed": true,
          "internalType": "uint256",
          "name": "matricule",
          "type": "uint256"
        }
      ],
      "name": "StudentUpdated",
      "type": "event"
    },
    {
      "inputs": [
        {
          "internalType": "uint256",
          "name": "_matricule",
          "type": "uint256"
        },
        {
          "internalType": "string",
          "name": "_name",
          "type": "string"
        },
        {
          "internalType": "string",
          "name": "_familyName",
          "type": "string"
        },
        {
          "internalType": "string",
          "name": "_speciality",
          "type": "string"
        },
        {
          "internalType": "string",
          "name": "_branch",
          "type": "string"
        },
        {
          "internalType": "string",
          "name": "_year",
          "type": "string"
        },
        {
          "internalType": "uint256",
          "name": "_rank",
          "type": "uint256"
        },
        {
          "internalType": "string",
          "name": "_average",
          "type": "string"
        },
        {
          "internalType": "uint256",
          "name": "_credits",
          "type": "uint256"
        },
        {
          "internalType": "enum RankRegistry.Session",
          "name": "_session",
          "type": "uint8"
        }
      ],
      "name": "addStudent",
      "outputs": [],
      "stateMutability": "nonpayable",
      "type": "function"
    },
    {
      "inputs": [
        {
          "internalType": "address",
          "name": "school",
          "type": "address"
        },
        {
          "internalType": "string",
          "name": "name",
          "type": "string"
        }
      ],
      "name": "authorizeSchool",
      "outputs": [],
      "stateMutability": "nonpayable",
      "type": "function"
    },
    {
      "inputs": [
        {
          "internalType": "address",
          "name": "",
          "type": "address"
        }
      ],
      "name": "authorizedSchools",
      "outputs": [
        {
          "internalType": "bool",
          "name": "",
          "type": "bool"
        }
      ],
      "stateMutability": "view",
      "type": "function"
    },
    {
      "inputs": [
        {
          "internalType": "uint256",
          "name": "_matricule",
          "type": "uint256"
        }
      ],
      "name": "deleteStudent",
      "outputs": [],
      "stateMutability": "nonpayable",
      "type": "function"
    },
    {
      "inputs": [],
      "name": "getAllStudents",
      "outputs": [
        {
          "components": [
            {
              "internalType": "uint256",
              "name": "matricule",
              "type": "uint256"
            },
            {
              "internalType": "string",
              "name": "name",
              "type": "string"
            },
            {
              "internalType": "string",
              "name": "familyName",
              "type": "string"
            },
            {
              "internalType": "string",
              "name": "speciality",
              "type": "string"
            },
            {
              "internalType": "string",
              "name": "branch",
              "type": "string"
            },
            {
              "internalType": "string",
              "name": "year",
              "type": "string"
            },
            {
              "internalType": "uint256",
              "name": "rank",
              "type": "uint256"
            },
            {
              "internalType": "string",
              "name": "average",
              "type": "string"
            },
            {
              "internalType": "uint256",
              "name": "credits",
              "type": "uint256"
            },
            {
              "internalType": "enum RankRegistry.Session",
              "name": "session",
              "type": "uint8"
            },
            {
              "internalType": "bool",
              "name": "exists",
              "type": "bool"
            }
          ],
          "internalType": "struct RankRegistry.Student[]",
          "name": "",
          "type": "tuple[]"
        }
      ],
      "stateMutability": "view",
      "type": "function"
    },
    {
      "inputs": [
        {
          "internalType": "bytes32",
          "name": "certId",
          "type": "bytes32"
        }
      ],
      "name": "getDocument",
      "outputs": [
        {
          "components": [
            {
              "internalType": "bytes32",
              "name": "certId",
              "type": "bytes32"
            },
            {
              "internalType": "uint256",
              "name": "matricule",
              "type": "uint256"
            },
            {
              "internalType": "string",
              "name": "documentType",
              "type": "string"
            },
            {
              "internalType": "string",
              "name": "description",
              "type": "string"
            },
            {
              "internalType": "string",
              "name": "ipfsHash",
              "type": "string"
            },
            {
              "internalType": "uint256",
              "name": "issueDate",
              "type": "uint256"
            },
            {
              "internalType": "address",
              "name": "issuedBy",
              "type": "address"
            },
            {
              "internalType": "bool",
              "name": "isRevoked",
              "type": "bool"
            }
          ],
          "internalType": "struct RankRegistry.CustomDocument",
          "name": "",
          "type": "tuple"
        }
      ],
      "stateMutability": "view",
      "type": "function"
    },
    {
      "inputs": [
        {
          "internalType": "uint256",
          "name": "_matricule",
          "type": "uint256"
        }
      ],
      "name": "getDocumentCount",
      "outputs": [
        {
          "internalType": "uint256",
          "name": "",
          "type": "uint256"
        }
      ],
      "stateMutability": "view",
      "type": "function"
    },
    {
      "inputs": [
        {
          "internalType": "uint256",
          "name": "_matricule",
          "type": "uint256"
        }
      ],
      "name": "getStudent",
      "outputs": [
        {
          "components": [
            {
              "internalType": "uint256",
              "name": "matricule",
              "type": "uint256"
            },
            {
              "internalType": "string",
              "name": "name",
              "type": "string"
            },
            {
              "internalType": "string",
              "name": "familyName",
              "type": "string"
            },
            {
              "internalType": "string",
              "name": "speciality",
              "type": "string"
            },
            {
              "internalType": "string",
              "name": "branch",
              "type": "string"
            },
            {
              "internalType": "string",
              "name": "year",
              "type": "string"
            },
            {
              "internalType": "uint256",
              "name": "rank",
              "type": "uint256"
            },
            {
              "internalType": "string",
              "name": "average",
              "type": "string"
            },
            {
              "internalType": "uint256",
              "name": "credits",
              "type": "uint256"
            },
            {
              "internalType": "enum RankRegistry.Session",
              "name": "session",
              "type": "uint8"
            },
            {
              "internalType": "bool",
              "name": "exists",
              "type": "bool"
            }
          ],
          "internalType": "struct RankRegistry.Student",
          "name": "",
          "type": "tuple"
        }
      ],
      "stateMutability": "view",
      "type": "function"
    },
    {
      "inputs": [],
      "name": "getStudentCount",
      "outputs": [
        {
          "internalType": "uint256",
          "name": "",
          "type": "uint256"
        }
      ],
      "stateMutability": "view",
      "type": "function"
    },
    {
      "inputs": [
        {
          "internalType": "uint256",
          "name": "_matricule",
          "type": "uint256"
        }
      ],
      "name": "getStudentDocuments",
      "outputs": [
        {
          "internalType": "bytes32[]",
          "name": "",
          "type": "bytes32[]"
        }
      ],
      "stateMutability": "view",
      "type": "function"
    },
    {
      "inputs": [
        {
          "internalType": "uint256",
          "name": "_matricule",
          "type": "uint256"
        },
        {
          "internalType": "string",
          "name": "_documentType",
          "type": "string"
        },
        {
          "internalType": "string",
          "name": "_description",
          "type": "string"
        },
        {
          "internalType": "string",
          "name": "_ipfsHash",
          "type": "string"
        }
      ],
      "name": "issueDocument",
      "outputs": [
        {
          "internalType": "bytes32",
          "name": "certId",
          "type": "bytes32"
        }
      ],
      "stateMutability": "nonpayable",
      "type": "function"
    },
    {
      "inputs": [],
      "name": "owner",
      "outputs": [
        {
          "internalType": "address",
          "name": "",
          "type": "address"
        }
      ],
      "stateMutability": "view",
      "type": "function"
    },
    {
      "inputs": [
        {
          "internalType": "bytes32",
          "name": "certId",
          "type": "bytes32"
        }
      ],
      "name": "revokeDocument",
      "outputs": [],
      "stateMutability": "nonpayable",
      "type": "function"
    },
    {
      "inputs": [
        {
          "internalType": "address",
          "name": "school",
          "type": "address"
        }
      ],
      "name": "revokeSchoolAuthorization",
      "outputs": [],
      "stateMutability": "nonpayable",
      "type": "function"
    },
    {
      "inputs": [
        {
          "internalType": "address",
          "name": "",
          "type": "address"
        }
      ],
      "name": "schoolNames",
      "outputs": [
        {
          "internalType": "string",
          "name": "",
          "type": "string"
        }
      ],
      "stateMutability": "view",
      "type": "function"
    },
    {
      "inputs": [],
      "name": "studentCount",
      "outputs": [
        {
          "internalType": "uint256",
          "name": "",
          "type": "uint256"
        }
      ],
      "stateMutability": "view",
      "type": "function"
    },
    {
      "inputs": [
        {
          "internalType": "address",
          "name": "newOwner",
          "type": "address"
        }
      ],
      "name": "transferOwnership",
      "outputs": [],
      "stateMutability": "nonpayable",
      "type": "function"
    },
    {
      "inputs": [
        {
          "internalType": "bytes32",
          "name": "certId",
          "type": "bytes32"
        }
      ],
      "name": "unrevokeDocument",
      "outputs": [],
      "stateMutability": "nonpayable",
      "type": "function"
    },
    {
      "inputs": [
        {
          "internalType": "uint256",
          "name": "_matricule",
          "type": "uint256"
        },
        {
          "internalType": "string",
          "name": "_name",
          "type": "string"
        },
        {
          "internalType": "string",
          "name": "_familyName",
          "type": "string"
        },
        {
          "internalType": "string",
          "name": "_speciality",
          "type": "string"
        },
        {
          "internalType": "string",
          "name": "_branch",
          "type": "string"
        },
        {
          "internalType": "string",
          "name": "_year",
          "type": "string"
        },
        {
          "internalType": "uint256",
          "name": "_rank",
          "type": "uint256"
        },
        {
          "internalType": "string",
          "name": "_average",
          "type": "string"
        },
        {
          "internalType": "uint256",
          "name": "_credits",
          "type": "uint256"
        },
        {
          "internalType": "enum RankRegistry.Session",
          "name": "_session",
          "type": "uint8"
        }
      ],
      "name": "updateStudent",
      "outputs": [],
      "stateMutability": "nonpayable",
      "type": "function"
    },
    {
      "inputs": [
        {
          "internalType": "bytes32",
          "name": "certId",
          "type": "bytes32"
        }
      ],
      "name": "verifyDocument",
      "outputs": [
        {
          "internalType": "bool",
          "name": "",
          "type": "bool"
        }
      ],
      "stateMutability": "view",
      "type": "function"
    }
  ],
  "bytecode": "0x6080806040523461002857600080546001600160a01b031916331790556129db908161002e8239f35b600080fdfe60e0604052600436101561001257600080fd5b60003560e01c80620b093214612192578063034762e014611bce5780630465ea2114611a6b57806307798a9114611a2c5780630fb5cbf41461127357806341e0c4071461032c57806351a7f437146111cd5780635a3cd9b414610fd6578063642f916314610ecb5780638da5cb5b14610ea2578063952be80d14610d3d5780639d21956214610d11578063b10d6b4114610b9e578063b645307d146109b4578063c57c011514610962578063d9f60b171461034a578063e581f9ee1461032c578063e9e3092714610174578063f2fde38b146101245763fe35089f146100f757600080fd5b3461011f57602036600319011261011f57602061011560043561297a565b6040519015158152f35b600080fd5b3461011f57602036600319011261011f5761013d61225f565b600054906001600160a01b039061015733838516146125a9565b16906101648215156125ee565b6001600160a01b03191617600055005b3461011f57600036600319011261011f57600280546101928161294f565b916101a060405193846124e2565b818352601f196101af8361294f565b0160005b81811061031557505060005b828110610225576040805160208082528651818301819052600093600582901b8401810192808a01929185015b8287106101f95785850386f35b909192938280610215600193603f198a820301865288516123b0565b96019201960195929190926101ec565b8061023261031092612750565b9054600391821b1c60005260019061028560209183835260406000209261026a6040519561025f876124aa565b855487528501612503565b90850152610279878401612503565b60408501528201612503565b606083015261029660048201612503565b60808301526102a760058201612503565b60a0830152600681015460c08301526102c260078201612503565b60e0830152600960089182810154610100850152015460ff916102eb838316610120860161272c565b1c1615156101408201526102ff8287612966565b5261030a8186612966565b50612787565b6101bf565b6020906103206128fd565b828288010152016101b3565b3461011f57600036600319011261011f576020600354604051908152f35b3461011f57608036600319011261011f576024356001600160401b03811161011f5761037a903690600401612275565b906044356001600160401b03811161011f5761039a903690600401612275565b91906064356001600160401b03811161011f576103bb903690600401612275565b91909360018060a01b036000541633148015610949575b6103db906126a9565b60043560005260016020526103fd60ff60096040600020015460081c16612796565b851561090b57600435600052600860205260ff6040600020602060405180928a8983378a82019081520301902054166108b857600954946040519060043560208301523360601b6040830152426054830152866074830152607482528160a08101106001600160401b0360a08401111761072a5761048c8260a06104d294016040526020815191012097612787565b6009556040519461049c866124c6565b8786526104c6602087019560043587526104b7368c8b6126e6565b956040890196875236916126e6565b606087015236916126e6565b60808401524260a08401523360c0840152600060e084015284600052600460205260406000209183518355516001830155518051906001600160401b03821161072a578190610531826105286002870154612470565b60028701612643565b602090601f83116001146108465760009261083b575b50508160011b916000199060031b1c19161760028201555b60608201518051906001600160401b03821161072a578190610591826105886003870154612470565b60038701612643565b602090601f83116001146107c9576000926107be575b50508160011b916000199060031b1c19161760038201555b60808201518051906001600160401b03821161072a576105ef826105e66004860154612470565b60048601612643565b602090601f831160011461074b57600693929160009183610740575b50508160011b916000199060031b1c19161760048201555b60a08301516005820155019060018060a01b0360c08201511682549160e060ff60a01b910151151560a01b16916affffffffffffffffffffff60a81b16171790556004356000526005602052604060002092835493600160401b85101561072a57600185018082558510156107145760209484916000528560002001556004356000526008845260406000208460405180928486833784820190815203019020600160ff19825416179055827f1cc6ac982d03dcce26e4e1273623a849ad76c146b2152af5b5ae170e8593ef2a604051868152806107093396600435968a840191612688565b0390a4604051908152f35b634e487b7160e01b600052603260045260246000fd5b634e487b7160e01b600052604160045260246000fd5b01519050888061060b565b906004840160005260206000209160005b601f19851681106107a6575091839160019360069695601f1981161061078d575b505050811b016004820155610623565b015160001960f88460031b161c1916905588808061077d565b9192602060018192868501518155019401920161075c565b0151905087806105a7565b9250600384016000526020600020906000935b601f1984168510610820576001945083601f19811610610807575b505050811b0160038201556105bf565b015160001960f88460031b161c191690558780806107f7565b818101518355602094850194600190930192909101906107dc565b015190508780610547565b9250600284016000526020600020906000935b601f198416851061089d576001945083601f19811610610884575b505050811b01600282015561055f565b015160001960f88460031b161c19169055878080610874565b81810151835560209485019460019093019290910190610859565b60405162461bcd60e51b815260206004820152602560248201527f446f63756d656e7420616c72656164792069737375656420666f722074686973604482015264207479706560d81b6064820152608490fd5b60405162461bcd60e51b8152602060048201526016602482015275111bd8dd5b595b9d081d1e5c19481c995c5d5a5c995960521b6044820152606490fd5b503360009081526006602052604090205460ff166103d2565b3461011f57602036600319011261011f576001600160a01b0361098361225f565b1660005260076020526109b061099c6040600020612503565b604051918291602083526020830190612370565b0390f35b3461011f57602036600319011261011f5760043560018060a01b036000541633148015610b85575b6109e5906126a9565b80600052600180602052610a0660ff60096040600020015460081c16612796565b8160005280602052604060002060008155610a228282016127d6565b6002610a2f8183016127d6565b60006009600393610a418582016127d6565b610a4d600482016127d6565b610a59600582016127d6565b826006820155610a6b600782016127d6565b8260088201550155826000905b610acc575b5050809150548015610ab6576000190190557f34de6b871245ed0a89b82912e8e5ee6d9c3104b3e5bb1d67a71ad7e68239e41c600080a2005b634e487b7160e01b600052601160045260246000fd5b815480821015610b7f5785610ae083612750565b905490861b1c14610afb5750610af590612787565b83610a78565b92935060001992838101908111610ab657610b27610b1b610b3e92612750565b905490871b1c92612750565b819391549060031b91821b91600019901b19161790565b905580548015610b6957820191610b5483612750565b9091825491861b1b1916905555808380610a7d565b634e487b7160e01b600052603160045260246000fd5b50610a7d565b503360009081526006602052604090205460ff166109dc565b3461011f5760208060031936011261011f57604051600435610bbf826124c6565b60008252600083830152600060e060609384604082015284808201528460808201528260a08201528260c082015201528060005260048352610c0a600560406000200154151561281f565b60005260048252604060002060405191610c23836124c6565b81548352600182015484840190815283610c3f60028501612503565b9160408201928352610cf8610c5660038701612503565b858401908152610c6860048801612503565b9060808501918252610ce7610cd1600660058b01549a60a089019b8c5201549760c088019660ff60e060018060a01b039a8b8d168b52019a60a01c1615158a526040518e819f9e829f8352519101525160408d015251610100809a8d01526101208c0190612370565b915191601f1992838c83030160808d0152612370565b9151908983030160a08a0152612370565b945160c0870152511660e0850152511515908301520390f35b3461011f57602036600319011261011f5760043560005260056020526020604060002054604051908152f35b3461011f5760208060031936011261011f57600435908160005260048152610d6e600560406000200154151561281f565b8160005260048152604060002060068101805460ff8160a01c16610e5d57600054336001600160a01b0391821614908115610e51575b5015610e0c5760ff60a01b1916600160a01b1790556001810154600090815260088352604090207f0a7643bfbd115d98595cc7bd15944172c7ef0e4a7f48dcaf676dec4b74be93679291610dfb919060020161286b565b805460ff19169055604051338152a2005b60405162461bcd60e51b815260048101859052601860248201527f4e6f7420617574686f72697a656420746f207265766f6b6500000000000000006044820152606490fd5b90508116331486610da4565b60405162461bcd60e51b815260048101859052601860248201527f446f63756d656e7420616c7265616479207265766f6b656400000000000000006044820152606490fd5b3461011f57600036600319011261011f576000546040516001600160a01b039091168152602090f35b3461011f5760208060031936011261011f57600435610ee86128fd565b508060005260018252610f0860ff60096040600020015460081c16612796565b6000526001815260406000209060ff600960405193610f26856124aa565b80548552610f3660018201612503565b84860152610f4660028201612503565b6040860152610f5760038201612503565b6060860152610f6860048201612503565b6080860152610f7960058201612503565b60a0860152600681015460c0860152610f9460078201612503565b60e086015260088101546101008601520154610fb6828216610120860161272c565b60081c1615156101408301526109b06040519282849384528301906123b0565b3461011f57604036600319011261011f57610fef61225f565b6001600160401b0360243581811161011f5761100f903690600401612275565b91909260018060a01b0390611029826000541633146125a9565b16926110368415156125ee565b836000526020916006835260ff6040600020541661118857846000526006835260406000206001908160ff1982541617905560078452604060002091851161072a5761108c856110868454612470565b84612643565b6000601f86116001146110ff579185807fa8047077c2a450926551411009705e53244402b75fbd76b5e07a3b2cb73300ac979695936110ef956000936110f4575b501b906000198760031b1c19161790555b604051938385948552840191612688565b0390a2005b85013592508a6110cd565b601f1986169083600052856000209160005b81811061117357509187969593917fa8047077c2a450926551411009705e53244402b75fbd76b5e07a3b2cb73300ac986110ef969410611159575b505085811b0190556110de565b840135600019600389901b60f8161c19169055888061114c565b86830135845592840192918701918701611111565b60405162461bcd60e51b815260048101849052601960248201527f5363686f6f6c20616c726561647920617574686f72697a6564000000000000006044820152606490fd5b3461011f5760208060031936011261011f5760043560005260058152604060002060405190818382549182815201908192600052846000209060005b8682821061125f57868661121f828803836124e2565b604051928392818401908285525180915260408401929160005b82811061124857505050500390f35b835185528695509381019392810192600101611239565b835485529093019260019283019201611209565b3461011f57611281366122a2565b98968f9b9e9d9c9b60018060a09d96999598949b9d1b036000541633148015611a13575b6112ae906126a9565b156119da578f600052600160205260ff60096040600020015460081c1661199c578f9a8f918f8f968f9b6113749f6113599d6113379761130d611329966113449d61131b95611302604051806080526124aa565b6080515236916126e6565b6020608051015236916126e6565b6040608051015236916126e6565b6060608051015236916126e6565b60808051015236916126e6565b60a0608051015260c0608051015236916126e6565b60e0608051015261010060805101526101206080510161272c565b60016101406080510152846000526001602052604060002060206080518051835501518051906001600160401b03821161072a5781906113c4826113bb6001870154612470565b60018701612643565b602090601f831160011461192a5760009261191f575b50508160011b916000199060031b1c19161760018201555b604060805101518051906001600160401b03821161072a57819061141d826105286002870154612470565b602090601f83116001146118ad576000926118a2575b50508160011b916000199060031b1c19161760028201555b606060805101518051906001600160401b03821161072a578190611476826105886003870154612470565b602090601f831160011461183057600092611825575b50508160011b916000199060031b1c19161760038201555b6080805101518051906001600160401b03821161072a5781906114d7826114ce6004870154612470565b60048701612643565b602090601f83116001146117b3576000926117a8575b50508160011b916000199060031b1c19161760048201555b60a060805101518051906001600160401b03821161072a578190611539826115306005870154612470565b60058701612643565b602090601f83116001146117365760009261172b575b50508160011b916000199060031b1c19161760058201555b60e060805160c0810151600684015501518051906001600160401b03821161072a5781906115a58261159c6007870154612470565b60078701612643565b602090601f83116001146116b9576000926116ae575b50508160011b916000199060031b1c19161760078201555b6101206009608051926101008401516008820155019101516002811015611698576115fe9082612738565b6080516101400151815461ff00191690151560081b61ff001617905560025490600160401b82101561072a577f8f2389bb456b93c3e9fe508739c041611b37c490e217f5aa157162a700ec4df79486611663610b278560016110ef9701600255612750565b9055611670600354612787565b60035561168a604051958695604087526040870191612688565b918483036020860152612688565b634e487b7160e01b600052602160045260246000fd5b0151905088806115bb565b9250600784016000526020600020906000935b601f1984168510611710576001945083601f198116106116f7575b505050811b0160078201556115d3565b015160001960f88460031b161c191690558880806116e7565b818101518355602094850194600190930192909101906116cc565b01519050888061154f565b9250600584016000526020600020906000935b601f198416851061178d576001945083601f19811610611774575b505050811b016005820155611567565b015160001960f88460031b161c19169055888080611764565b81810151835560209485019460019093019290910190611749565b0151905088806114ed565b9250600484016000526020600020906000935b601f198416851061180a576001945083601f198116106117f1575b505050811b016004820155611505565b015160001960f88460031b161c191690558880806117e1565b818101518355602094850194600190930192909101906117c6565b01519050888061148c565b9250600384016000526020600020906000935b601f1984168510611887576001945083601f1981161061186e575b505050811b0160038201556114a4565b015160001960f88460031b161c1916905588808061185e565b81810151835560209485019460019093019290910190611843565b015190508880611433565b9250600284016000526020600020906000935b601f1984168510611904576001945083601f198116106118eb575b505050811b01600282015561144b565b015160001960f88460031b161c191690558880806118db565b818101518355602094850194600190930192909101906118c0565b0151905088806113da565b9250600184016000526020600020906000935b601f1984168510611981576001945083601f19811610611968575b505050811b0160018201556113f2565b015160001960f88460031b161c19169055888080611958565b8181015183556020948501946001909301929091019061193d565b60405162461bcd60e51b815260206004820152601660248201527553747564656e7420616c72656164792065786973747360501b6044820152606490fd5b60405162461bcd60e51b8152602060048201526011602482015270496e76616c6964206d6174726963756c6560781b6044820152606490fd5b503360009081526006602052604090205460ff166112a5565b3461011f57602036600319011261011f576001600160a01b03611a4d61225f565b166000526006602052602060ff604060002054166040519015158152f35b3461011f5760208060031936011261011f57600435908160005260048152611a9c600560406000200154151561281f565b8160005260048152604060002060068101805460ff8160a01c1615611b8957600054336001600160a01b0391821614908115611b7d575b5015611b385760ff60a01b191690556001810154600090815260088352604090207f341306682bf1ac65080aa2d70f7a5bb9f28db75b9eaf3d207b01709496d479349291611b24919060020161286b565b805460ff19166001179055604051338152a2005b60405162461bcd60e51b815260048101859052601a60248201527f4e6f7420617574686f72697a656420746f20756e7265766f6b650000000000006044820152606490fd5b90508116331486611ad3565b60405162461bcd60e51b815260048101859052601760248201527f446f63756d656e74206973206e6f74207265766f6b65640000000000000000006044820152606490fd5b3461011f57611bdc366122a2565b9c90929e9d919b939a9260a09a969a9995995260018060a01b036000541633148015612179575b611c0c906126a9565b8d6000526001602052611c2c60ff60096040600020015460081c16612796565b8d600052600160205260406000208060c0526001600160401b03821161072a5781611c5d6001611c68930154612470565b600160c05101612643565b6000601f82116001146121095781926000926120fe575b50508160011b916000199060031b1c191617600160c05101555b6001600160401b03811161072a57611cc581611cba600260c0510154612470565b600260c05101612643565b6000601f821160011461208e578192600092612083575b50508160011b916000199060031b1c191617600260c05101555b6001600160401b03811161072a57611d2281611d17600360c0510154612470565b600360c05101612643565b6000601f8211600114612013578192600092612008575b50508160011b916000199060031b1c191617600360c05101555b6001600160401b03811161072a57611d7f81611d74600460c0510154612470565b600460c05101612643565b600091601f8211600114611f9957918192600092611f8e575b50508160011b916000199060031b1c191617600460c05101555b600560c05101916001600160401b03821161072a57611ddb82611dd58554612470565b85612643565b600090601f8311600114611f225760079493929160009183611f17575b50508160011b916000199060031b1c19161790555b60c05190600682015501906001600160401b03811161072a57611e34816110868454612470565b6000601f8211600114611eab578190611e799596600092611ea0575b50508160011b916000199060031b1c19161790555b600960a05160c05190600882015501612738565b7f397195550455bf5b0b61aa963bd6087f54f7281f81967d93cc1b9215f4f1dc7a600080a2005b013590508680611e50565b601f198216908360005260206000209160005b818110611eff575096839291600194611e79989910611ee5575b505050811b019055611e65565b0135600019600384901b60f8161c19169055868080611ed8565b9192602060018192868c013581550194019201611ebe565b013590508980611df8565b601f198316918460005260206000209260005b818110611f76575091600193918560079897969410611f5c575b505050811b019055611e0d565b0135600019600384901b60f8161c19169055898080611f4f565b91936020600181928787013581550195019201611f35565b013590508980611d98565b601f19821690600460c05101938460005260206000209260005b818110611ff05750908460019594939210611fd6575b505050811b019055611db2565b0135600019600384901b60f8161c191690558a8080611fc9565b91936020600181928787013581550195019201611fb3565b013590508b80611d39565b90600360c0510192836000526020600020906000935b601f198416851061206b576001945083601f19811610612051575b505050811b019055611d53565b0135600019600384901b60f8161c191690558c8080612044565b81810135835560209485019460019093019201612029565b013590508d80611cdc565b90600260c0510192836000526020600020906000935b601f19841685106120e6576001945083601f198116106120cc575b505050811b019055611cf6565b0135600019600384901b60f8161c191690558e80806120bf565b818101358355602094850194600190930192016120a4565b013590508f80611c7f565b90600160c0510192836000526020600020906000935b601f1984168510612161576001945083601f19811610612147575b505050811b019055611c99565b0135600019600384901b60f8161c1916905538808061213a565b8181013583556020948501946001909301920161211f565b503360009081526006602052604090205460ff16611c03565b3461011f57602036600319011261011f576121ab61225f565b6000546001600160a01b0391906121c590831633146125a9565b1680600052600660205260ff604060002054161561221a57806000526006602052604060002060ff1981541690557fc693642ba16feaff6d4367ba911e06143fe4707457c48bd60de0fc470a5384aa600080a2005b60405162461bcd60e51b815260206004820152601860248201527f5363686f6f6c206973206e6f7420617574686f72697a656400000000000000006044820152606490fd5b600435906001600160a01b038216820361011f57565b9181601f8401121561011f578235916001600160401b03831161011f576020838186019501011161011f57565b61014060031982011261011f57600490813592602435906001600160401b039182811161011f57836122d5918601612275565b9490949360443584811161011f57816122ef918401612275565b9490949360643582811161011f5783612309918601612275565b9490949360843584811161011f5781612323918401612275565b9490949360a43582811161011f578361233d918601612275565b9490949360c4359360e43590811161011f576123599201612275565b9091610104359061012435600281101561011f5790565b919082519283825260005b84811061239c575050826000602080949584010152601f8019910116010190565b60208183018101518483018201520161237b565b90815181526124416124256124136124016123ef6123dd60208801516101608060208a0152880190612370565b60408801518782036040890152612370565b60608701518682036060880152612370565b60808601518582036080870152612370565b60a085015184820360a0860152612370565b60c084015160c084015260e084015183820360e0850152612370565b916101008082015190830152610120808201519060028210156116985783015261014080910151151591015290565b90600182811c921680156124a0575b602083101461248a57565b634e487b7160e01b600052602260045260246000fd5b91607f169161247f565b61016081019081106001600160401b0382111761072a57604052565b61010081019081106001600160401b0382111761072a57604052565b90601f801991011681019081106001600160401b0382111761072a57604052565b906040519182600082549261251784612470565b9081845260019485811690816000146125865750600114612543575b5050612541925003836124e2565b565b9093915060005260209081600020936000915b81831061256e57505061254193508201013880612533565b85548884018501529485019487945091830191612556565b91505061254194506020925060ff191682840152151560051b8201013880612533565b156125b057565b60405162461bcd60e51b81526020600482015260166024820152752737ba103a34329031b7b73a3930b1ba1037bbb732b960511b6044820152606490fd5b156125f557565b60405162461bcd60e51b815260206004820152600f60248201526e496e76616c6964206164647265737360881b6044820152606490fd5b818110612637575050565b6000815560010161262c565b9190601f811161265257505050565b612541926000526020600020906020601f840160051c8301931061267e575b601f0160051c019061262c565b9091508190612671565b908060209392818452848401376000828201840152601f01601f1916010190565b156126b057565b60405162461bcd60e51b815260206004820152600e60248201526d139bdd08185d5d1a1bdc9a5e995960921b6044820152606490fd5b9291926001600160401b03821161072a576040519161270f601f8201601f1916602001846124e2565b82948184528183011161011f578281602093846000960137010152565b60028210156116985752565b9060028110156116985760ff80198354169116179055565b6002548110156107145760026000527f405787fa12a823e0f2b7631cc41b3ba8828b3321ca811111fa75cd3aa3bb5ace0190600090565b6000198114610ab65760010190565b1561279d57565b60405162461bcd60e51b815260206004820152601160248201527014dd1d59195b9d081b9bdd08199bdd5b99607a1b6044820152606490fd5b6127e08154612470565b90816127ea575050565b81601f600093116001146127fc575055565b90808391825261281b601f60208420940160051c84016001850161262c565b5555565b1561282657565b60405162461bcd60e51b815260206004820152601760248201527f446f63756d656e7420646f6573206e6f742065786973740000000000000000006044820152606490fd5b906040518092600090805461287f81612470565b916001918083169081156128e357506001146128a5575b50505060209281520301902090565b60009081526020808220969450915b8382106128cd5750505060209350820190923880612896565b86548883015295860195879550908201906128b4565b60ff19168652505050801515028201905060203880612896565b6040519061290a826124aa565b600061014083828152606080602083015280604083015280808301528060808301528060a08301528360c083015260e082015282610100820152826101208201520152565b6001600160401b03811161072a5760051b60200190565b80518210156107145760209160051b010190565b6000526004602052604060002060058101541561299f576006015460a01c60ff161590565b5060009056fea264697066735822122088e981b933bed2e8d8a9916194efafa40a780e440af36ca03d7297b01ec38bce64736f6c63430008140033",
  "linkReferences": {},
  "deployedLinkReferences": {}
}