{
  "_format": "hh-sol-artifact-1",
  "contractName": "StudyCertificateRegistry",
  "sourceName": "contracts/StudyCertificateRegistry.sol",
  "abi": [
    {
      "inputs": [],
      "stateMutability": "nonpayable",
      "type": "constructor"
    },
    {
      "anonymous": false,
      "inputs": [
        {
          "indexed": true,
          "internalType": "address",
          "name": "school",
          "type": "address"
        },
        {
          "indexed": false,
          "internalType": "string",
          "name": "name",
          "type": "string"
        }
      ],
      "name": "SchoolAuthorized",
      "type": "event"
    },
    {
      "anonymous": false,
      "inputs": [
        {
          "indexed": true,
          "internalType": "address",
          "name": "school",
          "type": "address"
        }
      ],
      "name": "SchoolRevoked",
      "type": "event"
    },
    {
      "anonymous": false,
      "inputs": [
        {
          "indexed": true,
          "internalType": "bytes32",
          "name": "certId",
          "type": "bytes32"
        },
        {
          "indexed": false,
          "internalType": "string",
          "name": "studentId",
          "type": "string"
        },
        {
          "indexed": true,
          "internalType": "address",
          "name": "school",
          "type": "address"
        },
        {
          "indexed": false,
          "internalType": "string",
          "name": "academicYear",
          "type": "string"
        }
      ],
      "name": "StudyCertificateIssued",
      "type": "event"
    },
    {
      "anonymous": false,
      "inputs": [
        {
          "indexed": true,
          "internalType": "bytes32",
          "name": "certId",
          "type": "bytes32"
        },
        {
          "indexed": false,
          "internalType": "address",
          "name": "revokedBy",
          "type": "address"
        }
      ],
      "name": "StudyCertificateRevoked",
      "type": "event"
    },
    {
      "anonymous": false,
      "inputs": [
        {
          "indexed": true,
          "internalType": "bytes32",
          "name": "certId",
          "type": "bytes32"
        },
        {
          "indexed": false,
          "internalType": "address",
          "name": "unrevokedBy",
          "type": "address"
        }
      ],
      "name": "StudyCertificateUnrevoked",
      "type": "event"
    },
    {
      "inputs": [
        {
          "internalType": "address",
          "name": "school",
          "type": "address"
        },
        {
          "internalType": "string",
          "name": "name",
          "type": "string"
        }
      ],
      "name": "authorizeSchool",
      "outputs": [],
      "stateMutability": "nonpayable",
      "type": "function"
    },
    {
      "inputs": [
        {
          "internalType": "address",
          "name": "",
          "type": "address"
        }
      ],
      "name": "authorizedSchools",
      "outputs": [
        {
          "internalType": "bool",
          "name": "",
          "type": "bool"
        }
      ],
      "stateMutability": "view",
      "type": "function"
    },
    {
      "inputs": [
        {
          "internalType": "bytes32",
          "name": "certId",
          "type": "bytes32"
        }
      ],
      "name": "getCertificate",
      "outputs": [
        {
          "components": [
            {
              "internalType": "bytes32",
              "name": "certId",
              "type": "bytes32"
            },
            {
              "internalType": "string",
              "name": "studentId",
              "type": "string"
            },
            {
              "internalType": "string",
              "name": "studentName",
              "type": "string"
            },
            {
              "internalType": "string",
              "name": "schoolName",
              "type": "string"
            },
            {
              "internalType": "string",
              "name": "programName",
              "type": "string"
            },
            {
              "internalType": "string",
              "name": "academicYear",
              "type": "string"
            },
            {
              "internalType": "string",
              "name": "certificateType",
              "type": "string"
            },
            {
              "internalType": "string",
              "name": "ipfsHash",
              "type": "string"
            },
            {
              "internalType": "uint256",
              "name": "issueDate",
              "type": "uint256"
            },
            {
              "internalType": "address",
              "name": "issuedBy",
              "type": "address"
            },
            {
              "internalType": "bool",
              "name": "isRevoked",
              "type": "bool"
            }
          ],
          "internalType": "struct StudyCertificateRegistry.StudyCertificate",
          "name": "",
          "type": "tuple"
        }
      ],
      "stateMutability": "view",
      "type": "function"
    },
    {
      "inputs": [
        {
          "internalType": "string",
          "name": "studentId",
          "type": "string"
        }
      ],
      "name": "getCertificateCount",
      "outputs": [
        {
          "internalType": "uint256",
          "name": "",
          "type": "uint256"
        }
      ],
      "stateMutability": "view",
      "type": "function"
    },
    {
      "inputs": [
        {
          "internalType": "string",
          "name": "studentId",
          "type": "string"
        }
      ],
      "name": "getStudentCertificates",
      "outputs": [
        {
          "internalType": "bytes32[]",
          "name": "",
          "type": "bytes32[]"
        }
      ],
      "stateMutability": "view",
      "type": "function"
    },
    {
      "inputs": [
        {
          "internalType": "string",
          "name": "studentId",
          "type": "string"
        },
        {
          "internalType": "string",
          "name": "studentName",
          "type": "string"
        },
        {
          "internalType": "string",
          "name": "programName",
          "type": "string"
        },
        {
          "internalType": "string",
          "name": "academicYear",
          "type": "string"
        },
        {
          "internalType": "string",
          "name": "certificateType",
          "type": "string"
        },
        {
          "internalType": "string",
          "name": "ipfsHash",
          "type": "string"
        }
      ],
      "name": "issueStudyCertificate",
      "outputs": [
        {
          "internalType": "bytes32",
          "name": "certId",
          "type": "bytes32"
        }
      ],
      "stateMutability": "nonpayable",
      "type": "function"
    },
    {
      "inputs": [],
      "name": "owner",
      "outputs": [
        {
          "internalType": "address",
          "name": "",
          "type": "address"
        }
      ],
      "stateMutability": "view",
      "type": "function"
    },
    {
      "inputs": [
        {
          "internalType": "bytes32",
          "name": "certId",
          "type": "bytes32"
        }
      ],
      "name": "revokeCertificate",
      "outputs": [],
      "stateMutability": "nonpayable",
      "type": "function"
    },
    {
      "inputs": [
        {
          "internalType": "address",
          "name": "school",
          "type": "address"
        }
      ],
      "name": "revokeSchoolAuthorization",
      "outputs": [],
      "stateMutability": "nonpayable",
      "type": "function"
    },
    {
      "inputs": [
        {
          "internalType": "address",
          "name": "",
          "type": "address"
        }
      ],
      "name": "schoolNames",
      "outputs": [
        {
          "internalType": "string",
          "name": "",
          "type": "string"
        }
      ],
      "stateMutability": "view",
      "type": "function"
    },
    {
      "inputs": [
        {
          "internalType": "address",
          "name": "newOwner",
          "type": "address"
        }
      ],
      "name": "transferOwnership",
      "outputs": [],
      "stateMutability": "nonpayable",
      "type": "function"
    },
    {
      "inputs": [
        {
          "internalType": "bytes32",
          "name": "certId",
          "type": "bytes32"
        }
      ],
      "name": "unrevokeCertificate",
      "outputs": [],
      "stateMutability": "nonpayable",
      "type": "function"
    },
    {
      "inputs": [
        {
          "internalType": "bytes32",
          "name": "certId",
          "type": "bytes32"
        }
      ],
      "name": "verifyCertificate",
      "outputs": [
        {
          "internalType": "bool",
          "name": "",
          "type": "bool"
        }
      ],
      "stateMutability": "view",
      "type": "function"
    }
  ],
  "bytecode": "0x6080806040523461002857600080546001600160a01b03191633179055611c1a908161002e8239f35b600080fdfe6080604052600436101561001257600080fd5b60003560e01c80620b0932146115c157806307798a91146115825780630f0ae6201461154457806318ca775b146113e2578063344c00271461083f5780635a3cd9b414610632578063850c17681461060a5780638da5cb5b146105e1578063ade3de2c14610522578063c57c0115146104d0578063c6cbc52a14610332578063f2fde38b146102e25763f333fe08146100aa57600080fd5b346102dd5760203660031901126102dd5760043560006101406040516100cf8161170b565b828152606060208201526060604082015260608082015260606080820152606060a0820152606060c0820152606060e08201528261010082015282610120820152015280600052600160205261012e6008604060002001541515611a06565b6000526001602052604060002060ff60096040519261014c8461170b565b8054845261015c60018201611748565b602085015261016d60028201611748565b604085015261017e60038201611748565b606085015261018f60048201611748565b60808501526101a060058201611748565b60a08501526101b160068201611748565b60c08501526101c260078201611748565b60e08501526008810154610100850152015460018060a01b03811661012084015260a01c161515610140820152604051809160208252805160208301526101406102ae61022060208401516101606040870152610180860190611811565b61029861028461027061025c610248604089015195601f1996878c83030160608d0152611811565b6060890151868b83030160808c0152611811565b6080880151858a83030160a08b0152611811565b60a0870151848983030160c08a0152611811565b60c0860151838883030160e0890152611811565b9060e08501519086830301610100870152611811565b610100830151610120858101919091528301516001600160a01b03168285015291015115156101608301520390f35b600080fd5b346102dd5760203660031901126102dd576102fb61168e565b600054906001600160a01b03906103153383851614611836565b169061032282151561187b565b6001600160a01b03191617600055005b346102dd576020806003193601126102dd576004359081600052600181526103636008604060002001541515611a06565b8160005260018152604060002060098101805460ff8160a01c1661048b57600054336001600160a01b039182161490811561047f575b501561043a5760ff60a01b1916600160a01b1790556040517f53191db7ae9476b4c22ecf521fd38e7e67f8bc48ddc11b9bf1ef1a5a98f982d8929161042991610416906104249085816103ef8160018801611a52565b600581520301902092604051928391600661040f89850160058401611a52565b9101611a52565b03601f198101835282611727565b611947565b805460ff19169055604051338152a2005b60405162461bcd60e51b815260048101859052601860248201527f4e6f7420617574686f72697a656420746f207265766f6b6500000000000000006044820152606490fd5b90508116331486610399565b60405162461bcd60e51b815260048101859052601b60248201527f436572746966696361746520616c7265616479207265766f6b656400000000006044820152606490fd5b346102dd5760203660031901126102dd576001600160a01b036104f161168e565b16600052600460205261051e61050a6040600020611748565b604051918291602083526020830190611811565b0390f35b346102dd576020806003193601126102dd576004356001600160401b0381116102dd5761055661055c9136906004016116a4565b9061192e565b60405190818382549182815201908192600052846000209060005b868282106105cd57868661058d82880383611727565b604051928392818401908285525180915260408401929160005b8281106105b657505050500390f35b8351855286955093810193928101926001016105a7565b835485529093019260019283019201610577565b346102dd5760003660031901126102dd576000546040516001600160a01b039091168152602090f35b346102dd5760203660031901126102dd576020610628600435611ad5565b6040519015158152f35b346102dd5760403660031901126102dd5761064b61168e565b6001600160401b036024358181116102dd5761066b9036906004016116a4565b91909260018060a01b039061068582600054163314611836565b169261069284151561187b565b836000526020916003835260ff604060002054166107fa57846000526003835260406000206001908160ff198254161790556004845260406000209185116107e4576106e8856106e284546116d1565b846118b9565b6000601f861160011461075b579185807fa8047077c2a450926551411009705e53244402b75fbd76b5e07a3b2cb73300ac9796959361074b95600093610750575b501b906000198760031b1c19161790555b60405193838594855284019161190d565b0390a2005b85013592508a610729565b601f1986169083600052856000209160005b8181106107cf57509187969593917fa8047077c2a450926551411009705e53244402b75fbd76b5e07a3b2cb73300ac9861074b9694106107b5575b505085811b01905561073a565b840135600019600389901b60f8161c1916905588806107a8565b8683013584559284019291870191870161076d565b634e487b7160e01b600052604160045260246000fd5b60405162461bcd60e51b815260048101849052601960248201527f5363686f6f6c20616c726561647920617574686f72697a6564000000000000006044820152606490fd5b346102dd5760c03660031901126102dd576004356001600160401b0381116102dd5761086f9036906004016116a4565b6024356001600160401b0381116102dd5761088e9036906004016116a4565b9290916044356001600160401b0381116102dd576108b09036906004016116a4565b90926064356001600160401b0381116102dd576108d19036906004016116a4565b9690946084356001600160401b0381116102dd576108f39036906004016116a4565b906001600160401b0360a435116102dd576109133660a4356004016116a4565b92909333600052600360205260ff604060002054161561139d5788156113625785156113255787156112e8578b156112aa5781156112655789978983858f8c816040519e8f602001378d808584820181876020830160008152370160208101600090520380825260200161098691611727565b8d8d8660405191823780878101600581520360200190206109a691611947565b5460ff1615948515611250575b5050505050156111e5576006549660405160208101908c8b8337808d81013360601b60208201524260348201528b6054820152036054810182526074016109fa9082611727565b5190209c610a088e9961196d565b60065533600052600460205260406000209160405199610a278b61170b565b8a52610a34368e8d611992565b60208b01523690610a4492611992565b6040890152610a5290611748565b60608801523690610a6292611992565b6080860152610a72368c8b611992565b60a08601523690610a8292611992565b60c08401523690610a9292611992565b60e0820152426101008201523361012082015261014081016000905285600052600160205260406000208151815560208201518051906001600160401b0382116107e4578190610af282610ae960018701546116d1565b600187016118b9565b602090601f831160011461117357600092611168575b50508160011b916000199060031b1c19161760018201555b60408201518051906001600160401b0382116107e4578190610b5282610b4960028701546116d1565b600287016118b9565b602090601f83116001146110f6576000926110eb575b50508160011b916000199060031b1c19161760028201555b60608201518051906001600160401b0382116107e4578190610bb282610ba960038701546116d1565b600387016118b9565b602090601f83116001146110795760009261106e575b50508160011b916000199060031b1c19161760038201555b60808201518051906001600160401b0382116107e4578190610c1282610c0960048701546116d1565b600487016118b9565b602090601f8311600114610ffc57600092610ff1575b50508160011b916000199060031b1c19161760048201555b60a08201518051906001600160401b0382116107e4578190610c7282610c6960058701546116d1565b600587016118b9565b602090601f8311600114610f7f57600092610f74575b50508160011b916000199060031b1c19161760058201555b60c08201518051906001600160401b0382116107e4578190610cd282610cc960068701546116d1565b600687016118b9565b602090601f8311600114610f0257600092610ef7575b50508160011b916000199060031b1c19161760068201555b60e08201518051906001600160401b0382116107e457610d3082610d2760078601546116d1565b600786016118b9565b602090601f8311600114610e8457600993929160009183610e79575b50508160011b916000199060031b1c19161760078201555b6101008301516008820155019060018060a01b036101208201511682549161014060ff60a01b910151151560a01b16916affffffffffffffffffffff60a81b161717905560405183828237602081858101600281520301902092835493680100000000000000008510156107e457602097610e3d7fd0c916b4a290e13928f448f3e9282a58009790fe0ac5e6c35c83744de62ab3f795610e0e88610e6e9560018d9b0181556119d8565b81549060031b908a821b91600019901b1916179055604051858782378b81878101600581520301902090611947565b600160ff19825416179055610e5f60405194859460408652604086019161190d565b908382038a850152339761190d565b0390a3604051908152f35b015190508b80610d4c565b906007840160005260206000209160005b601f1985168110610edf575091839160019360099695601f19811610610ec6575b505050811b016007820155610d64565b015160001960f88460031b161c191690558b8080610eb6565b91926020600181928685015181550194019201610e95565b015190508a80610ce8565b9250600684016000526020600020906000935b601f1984168510610f59576001945083601f19811610610f40575b505050811b016006820155610d00565b015160001960f88460031b161c191690558a8080610f30565b81810151835560209485019460019093019290910190610f15565b015190508a80610c88565b9250600584016000526020600020906000935b601f1984168510610fd6576001945083601f19811610610fbd575b505050811b016005820155610ca0565b015160001960f88460031b161c191690558a8080610fad565b81810151835560209485019460019093019290910190610f92565b015190508a80610c28565b9250600484016000526020600020906000935b601f1984168510611053576001945083601f1981161061103a575b505050811b016004820155610c40565b015160001960f88460031b161c191690558a808061102a565b8181015183556020948501946001909301929091019061100f565b015190508a80610bc8565b9250600384016000526020600020906000935b601f19841685106110d0576001945083601f198116106110b7575b505050811b016003820155610be0565b015160001960f88460031b161c191690558a80806110a7565b8181015183556020948501946001909301929091019061108c565b015190508a80610b68565b9250600284016000526020600020906000935b601f198416851061114d576001945083601f19811610611134575b505050811b016002820155610b80565b015160001960f88460031b161c191690558a8080611124565b81810151835560209485019460019093019290910190611109565b015190508a80610b08565b9250600184016000526020600020906000935b601f19841685106111ca576001945083601f198116106111b1575b505050811b016001820155610b20565b015160001960f88460031b161c191690558a80806111a1565b81810151835560209485019460019093019290910190611186565b60405162461bcd60e51b815260206004820152603b60248201527f416e2061637469766520636572746966696361746520616c726561647920657860448201527f6973747320666f722074686973207965617220616e64207479706500000000006064820152608490fd5b61125b95508d611b00565b83858f8e8e6109b3565b60405162461bcd60e51b815260206004820152601960248201527f43657274696669636174652074797065207265717569726564000000000000006044820152606490fd5b60405162461bcd60e51b81526020600482015260166024820152751058d859195b5a58c81e59585c881c995c5d5a5c995960521b6044820152606490fd5b60405162461bcd60e51b8152602060048201526015602482015274141c9bd9dc985b481b985b59481c995c5d5a5c9959605a1b6044820152606490fd5b60405162461bcd60e51b815260206004820152601560248201527414dd1d59195b9d081b985b59481c995c5d5a5c9959605a1b6044820152606490fd5b60405162461bcd60e51b815260206004820152601360248201527214dd1d59195b9d081251081c995c5d5a5c9959606a1b6044820152606490fd5b60405162461bcd60e51b815260206004820152601860248201527f4e6f7420616e20617574686f72697a6564207363686f6f6c00000000000000006044820152606490fd5b346102dd576020806003193601126102dd576004359081600052600181526114136008604060002001541515611a06565b8160005260018152604060002060098101805460ff8160a01c16156114ff57600054336001600160a01b03918216149081156114f3575b50156114ae5760ff60a01b191690556040517f3ed06a0968e9c1a2b252d3de6a3023a848b44609a41f3b08d93ed2a790485955929161149a91610416906104249085816103ef8160018801611a52565b805460ff19166001179055604051338152a2005b60405162461bcd60e51b815260048101859052601a60248201527f4e6f7420617574686f72697a656420746f20756e7265766f6b650000000000006044820152606490fd5b9050811633148661144a565b60405162461bcd60e51b815260048101859052601a60248201527f4365727469666963617465206973206e6f74207265766f6b65640000000000006044820152606490fd5b346102dd5760203660031901126102dd576004356001600160401b0381116102dd5761157961055660209236906004016116a4565b54604051908152f35b346102dd5760203660031901126102dd576001600160a01b036115a361168e565b166000526003602052602060ff604060002054166040519015158152f35b346102dd5760203660031901126102dd576115da61168e565b6000546001600160a01b0391906115f49083163314611836565b1680600052600360205260ff604060002054161561164957806000526003602052604060002060ff1981541690557fc693642ba16feaff6d4367ba911e06143fe4707457c48bd60de0fc470a5384aa600080a2005b60405162461bcd60e51b815260206004820152601860248201527f5363686f6f6c206973206e6f7420617574686f72697a656400000000000000006044820152606490fd5b600435906001600160a01b03821682036102dd57565b9181601f840112156102dd578235916001600160401b0383116102dd57602083818601950101116102dd57565b90600182811c92168015611701575b60208310146116eb57565b634e487b7160e01b600052602260045260246000fd5b91607f16916116e0565b61016081019081106001600160401b038211176107e457604052565b90601f801991011681019081106001600160401b038211176107e457604052565b906040519182600082549261175c846116d1565b9081845260019485811690816000146117cb5750600114611788575b505061178692500383611727565b565b9093915060005260209081600020936000915b8183106117b357505061178693508201013880611778565b8554888401850152948501948794509183019161179b565b91505061178694506020925060ff191682840152151560051b8201013880611778565b60005b8381106118015750506000910152565b81810151838201526020016117f1565b9060209161182a815180928185528580860191016117ee565b601f01601f1916010190565b1561183d57565b60405162461bcd60e51b81526020600482015260166024820152752737ba103a34329031b7b73a3930b1ba1037bbb732b960511b6044820152606490fd5b1561188257565b60405162461bcd60e51b815260206004820152600f60248201526e496e76616c6964206164647265737360881b6044820152606490fd5b90601f81116118c757505050565b600091825260208220906020601f850160051c83019410611903575b601f0160051c01915b8281106118f857505050565b8181556001016118ec565b90925082906118e3565b908060209392818452848401376000828201840152601f01601f1916010190565b6020908260405193849283378101600281520301902090565b6020906119619282604051948386809551938492016117ee565b82019081520301902090565b600019811461197c5760010190565b634e487b7160e01b600052601160045260246000fd5b9291926001600160401b0382116107e457604051916119bb601f8201601f191660200184611727565b8294818452818301116102dd578281602093846000960137010152565b80548210156119f05760005260206000200190600090565b634e487b7160e01b600052603260045260246000fd5b15611a0d57565b60405162461bcd60e51b815260206004820152601a60248201527f436572746966696361746520646f6573206e6f742065786973740000000000006044820152606490fd5b600092918154611a61816116d1565b92600191808316908115611aba5750600114611a7e575b50505050565b90919293945060005260209081600020906000915b858310611aa95750505050019038808080611a78565b805485840152918301918101611a93565b60ff1916845250505081151590910201915038808080611a78565b60005260016020526040600020600881015415611afa576009015460a01c60ff161590565b50600090565b9491909294611b4e6040948086519384378201600281528260208094819303019020978651958187928484019788378201818482019a60009b8c815237018883820152038086520184611727565b855495855b878110611b67575050505050505050600190565b611b7181836119d8565b90549060031b1c875260018352858720865184810190611ba481610416611b9b8560058801611a52565b60068701611a52565b51902086518620149081611bd1575b50611bc657611bc19061196d565b611b53565b505050505050905090565b60ff91506009015460a01c161538611bb356fea264697066735822122063b5ae9128a4cd447d1eafc8d2d9e65bf59d207e13e7872acd77c6bc22cacf7464736f6c63430008140033",
  "linkReferences": {},
  "deployedLinkReferences": {}
}